{
  "contractName": "Dex",
  "abi": [
    {
      "anonymous": false,
      "inputs": [
        {
          "indexed": true,
          "internalType": "address",
          "name": "previousOwner",
          "type": "address"
        },
        {
          "indexed": true,
          "internalType": "address",
          "name": "newOwner",
          "type": "address"
        }
      ],
      "name": "OwnershipTransferred",
      "type": "event"
    },
    {
      "inputs": [
        {
          "internalType": "bytes32",
          "name": "ticker",
          "type": "bytes32"
        },
        {
          "internalType": "address",
          "name": "tokenAddress",
          "type": "address"
        }
      ],
      "name": "addToken",
      "outputs": [],
      "stateMutability": "nonpayable",
      "type": "function"
    },
    {
      "inputs": [
        {
          "internalType": "address",
          "name": "",
          "type": "address"
        },
        {
          "internalType": "bytes32",
          "name": "",
          "type": "bytes32"
        }
      ],
      "name": "balance",
      "outputs": [
        {
          "internalType": "uint256",
          "name": "",
          "type": "uint256"
        }
      ],
      "stateMutability": "view",
      "type": "function",
      "constant": true
    },
    {
      "inputs": [
        {
          "internalType": "uint256",
          "name": "amount",
          "type": "uint256"
        },
        {
          "internalType": "bytes32",
          "name": "ticker",
          "type": "bytes32"
        }
      ],
      "name": "deposit",
      "outputs": [],
      "stateMutability": "nonpayable",
      "type": "function"
    },
    {
      "inputs": [],
      "name": "nextOrderId",
      "outputs": [
        {
          "internalType": "uint256",
          "name": "",
          "type": "uint256"
        }
      ],
      "stateMutability": "view",
      "type": "function",
      "constant": true
    },
    {
      "inputs": [
        {
          "internalType": "bytes32",
          "name": "",
          "type": "bytes32"
        },
        {
          "internalType": "uint256",
          "name": "",
          "type": "uint256"
        },
        {
          "internalType": "uint256",
          "name": "",
          "type": "uint256"
        }
      ],
      "name": "orderBook",
      "outputs": [
        {
          "internalType": "uint256",
          "name": "id",
          "type": "uint256"
        },
        {
          "internalType": "address",
          "name": "trader",
          "type": "address"
        },
        {
          "internalType": "enum Dex.Side",
          "name": "side",
          "type": "uint8"
        },
        {
          "internalType": "bytes32",
          "name": "ticker",
          "type": "bytes32"
        },
        {
          "internalType": "uint256",
          "name": "amount",
          "type": "uint256"
        },
        {
          "internalType": "uint256",
          "name": "price",
          "type": "uint256"
        }
      ],
      "stateMutability": "view",
      "type": "function",
      "constant": true
    },
    {
      "inputs": [],
      "name": "owner",
      "outputs": [
        {
          "internalType": "address",
          "name": "",
          "type": "address"
        }
      ],
      "stateMutability": "view",
      "type": "function",
      "constant": true
    },
    {
      "inputs": [],
      "name": "renounceOwnership",
      "outputs": [],
      "stateMutability": "nonpayable",
      "type": "function"
    },
    {
      "inputs": [
        {
          "internalType": "uint256",
          "name": "",
          "type": "uint256"
        }
      ],
      "name": "tokenList",
      "outputs": [
        {
          "internalType": "bytes32",
          "name": "",
          "type": "bytes32"
        }
      ],
      "stateMutability": "view",
      "type": "function",
      "constant": true
    },
    {
      "inputs": [
        {
          "internalType": "bytes32",
          "name": "",
          "type": "bytes32"
        }
      ],
      "name": "tokenMapping",
      "outputs": [
        {
          "internalType": "bytes32",
          "name": "ticker",
          "type": "bytes32"
        },
        {
          "internalType": "address",
          "name": "tokenAddress",
          "type": "address"
        }
      ],
      "stateMutability": "view",
      "type": "function",
      "constant": true
    },
    {
      "inputs": [
        {
          "internalType": "address",
          "name": "newOwner",
          "type": "address"
        }
      ],
      "name": "transferOwnership",
      "outputs": [],
      "stateMutability": "nonpayable",
      "type": "function"
    },
    {
      "inputs": [
        {
          "internalType": "uint256",
          "name": "amount",
          "type": "uint256"
        },
        {
          "internalType": "bytes32",
          "name": "ticker",
          "type": "bytes32"
        }
      ],
      "name": "withdraw",
      "outputs": [],
      "stateMutability": "nonpayable",
      "type": "function"
    },
    {
      "inputs": [
        {
          "internalType": "bytes32",
          "name": "ticker",
          "type": "bytes32"
        },
        {
          "internalType": "enum Dex.Side",
          "name": "side",
          "type": "uint8"
        }
      ],
      "name": "getOrderBook",
      "outputs": [
        {
          "components": [
            {
              "internalType": "uint256",
              "name": "id",
              "type": "uint256"
            },
            {
              "internalType": "address",
              "name": "trader",
              "type": "address"
            },
            {
              "internalType": "enum Dex.Side",
              "name": "side",
              "type": "uint8"
            },
            {
              "internalType": "bytes32",
              "name": "ticker",
              "type": "bytes32"
            },
            {
              "internalType": "uint256",
              "name": "amount",
              "type": "uint256"
            },
            {
              "internalType": "uint256",
              "name": "price",
              "type": "uint256"
            }
          ],
          "internalType": "struct Dex.Order[]",
          "name": "",
          "type": "tuple[]"
        }
      ],
      "stateMutability": "view",
      "type": "function",
      "constant": true
    },
    {
      "inputs": [
        {
          "internalType": "enum Dex.Side",
          "name": "side",
          "type": "uint8"
        },
        {
          "internalType": "bytes32",
          "name": "ticker",
          "type": "bytes32"
        },
        {
          "internalType": "uint256",
          "name": "amount",
          "type": "uint256"
        },
        {
          "internalType": "uint256",
          "name": "price",
          "type": "uint256"
        }
      ],
      "name": "createLimitOrder",
      "outputs": [],
      "stateMutability": "nonpayable",
      "type": "function"
    }
  ],
  "bytecode": "0x6080604052600060045534801561001557600080fd5b5060006100266100c960201b60201c565b9050806000806101000a81548173ffffffffffffffffffffffffffffffffffffffff021916908373ffffffffffffffffffffffffffffffffffffffff1602179055508073ffffffffffffffffffffffffffffffffffffffff16600073ffffffffffffffffffffffffffffffffffffffff167f8be0079c531659141344cd1fd0a4f28419497f9722a3daafe3b4186f6b6457e060405160405180910390a3506100d1565b600033905090565b611fcc806100e06000396000f3fe608060405234801561001057600080fd5b50600436106100cf5760003560e01c80639776aacf1161008c578063ba58ea6811610066578063ba58ea6814610204578063c9630cb014610234578063f2fde38b14610250578063feb8be821461026c576100cf565b80639776aacf1461019c5780639ead7222146101b8578063a8d2021a146101e8576100cf565b80630bb431b6146100d45780632a58b33014610109578063667cb4ba146101275780636f3b62f914610158578063715018a6146101745780638da5cb5b1461017e575b600080fd5b6100ee60048036038101906100e991906117a2565b61029c565b60405161010096959493929190611bc0565b60405180910390f35b61011161032f565b60405161011e9190611ba5565b60405180910390f35b610141600480360381019061013c91906116f5565b610335565b60405161014f929190611b1c565b60405180910390f35b610172600480360381019061016d91906117f5565b610379565b005b61017c610d8c565b005b610186610ec6565b6040516101939190611a9b565b60405180910390f35b6101b660048036038101906101b19190611722565b610eef565b005b6101d260048036038101906101cd919061185c565b61102a565b6040516101df9190611b01565b60405180910390f35b61020260048036038101906101fd9190611889565b61104e565b005b61021e60048036038101906102199190611762565b6112c9565b60405161022b9190611adf565b60405180910390f35b61024e60048036038101906102499190611889565b611418565b005b61026a6004803603810190610265919061165b565b61141c565b005b61028660048036038101906102819190611688565b6115c5565b6040516102939190611ba5565b60405180910390f35b600560205282600052604060002060205281600052604060002081815481106102c457600080fd5b906000526020600020906005020160009250925050508060000154908060010160009054906101000a900473ffffffffffffffffffffffffffffffffffffffff16908060010160149054906101000a900460ff16908060020154908060030154908060040154905086565b60045481565b60016020528060005260406000206000915090508060000154908060010160009054906101000a900473ffffffffffffffffffffffffffffffffffffffff16905082565b6000600181111561038d5761038c611e12565b5b8460018111156103a05761039f611e12565b5b14156104335780826103b29190611c6b565b600360003373ffffffffffffffffffffffffffffffffffffffff1673ffffffffffffffffffffffffffffffffffffffff16815260200190815260200160002060007f4554480000000000000000000000000000000000000000000000000000000000815260200190815260200160002054101561042e57600080fd5b6104de565b60018081111561044657610445611e12565b5b84600181111561045957610458611e12565b5b14156104dd5781600360003373ffffffffffffffffffffffffffffffffffffffff1673ffffffffffffffffffffffffffffffffffffffff16815260200190815260200160002060007f7469636b6572000000000000000000000000000000000000000000000000000081526020019081526020016000205410156104dc57600080fd5b5b5b600060056000858152602001908152602001600020600086600181111561050857610507611e12565b5b81526020019081526020016000209050806040518060c0016040528060045481526020013373ffffffffffffffffffffffffffffffffffffffff16815260200187600181111561055b5761055a611e12565b5b81526020018681526020018581526020018481525090806001815401808255809150506001900390600052602060002090600502016000909190919091506000820151816000015560208201518160010160006101000a81548173ffffffffffffffffffffffffffffffffffffffff021916908373ffffffffffffffffffffffffffffffffffffffff16021790555060408201518160010160146101000a81548160ff0219169083600181111561061557610614611e12565b5b0217905550606082015181600201556080820151816003015560a08201518160040155505060008082805490501161064e576000610660565b6001828054905061065f9190611cc5565b5b90506000600181111561067657610675611e12565b5b86600181111561068957610688611e12565b5b14156109e9575b60008111156109e4578181815481106106ac576106ab611e41565b5b906000526020600020906005020160040154826001836106cc9190611cc5565b815481106106dd576106dc611e41565b5b90600052602060002090600502016004015411156106fa576109e4565b60008260018361070a9190611cc5565b8154811061071b5761071a611e41565b5b90600052602060002090600502016040518060c0016040529081600082015481526020016001820160009054906101000a900473ffffffffffffffffffffffffffffffffffffffff1673ffffffffffffffffffffffffffffffffffffffff1673ffffffffffffffffffffffffffffffffffffffff1681526020016001820160149054906101000a900460ff1660018111156107b9576107b8611e12565b5b60018111156107cb576107ca611e12565b5b81526020016002820154815260200160038201548152602001600482015481525050905082828154811061080257610801611e41565b5b90600052602060002090600502018360018461081e9190611cc5565b8154811061082f5761082e611e41565b5b9060005260206000209060050201600082015481600001556001820160009054906101000a900473ffffffffffffffffffffffffffffffffffffffff168160010160006101000a81548173ffffffffffffffffffffffffffffffffffffffff021916908373ffffffffffffffffffffffffffffffffffffffff1602179055506001820160149054906101000a900460ff168160010160146101000a81548160ff021916908360018111156108e6576108e5611e12565b5b0217905550600282015481600201556003820154816003015560048201548160040155905050808383815481106109205761091f611e41565b5b90600052602060002090600502016000820151816000015560208201518160010160006101000a81548173ffffffffffffffffffffffffffffffffffffffff021916908373ffffffffffffffffffffffffffffffffffffffff16021790555060408201518160010160146101000a81548160ff021916908360018111156109aa576109a9611e12565b5b0217905550606082015181600201556080820151816003015560a0820151816004015590505081806109db90611d70565b92505050610690565b610d6c565b6001808111156109fc576109fb611e12565b5b866001811115610a0f57610a0e611e12565b5b1415610d6b575b6000811115610d6a57818181548110610a3257610a31611e41565b5b90600052602060002090600502016004015482600183610a529190611cc5565b81548110610a6357610a62611e41565b5b9060005260206000209060050201600401541015610a8057610d6a565b600082600183610a909190611cc5565b81548110610aa157610aa0611e41565b5b90600052602060002090600502016040518060c0016040529081600082015481526020016001820160009054906101000a900473ffffffffffffffffffffffffffffffffffffffff1673ffffffffffffffffffffffffffffffffffffffff1673ffffffffffffffffffffffffffffffffffffffff1681526020016001820160149054906101000a900460ff166001811115610b3f57610b3e611e12565b5b6001811115610b5157610b50611e12565b5b815260200160028201548152602001600382015481526020016004820154815250509050828281548110610b8857610b87611e41565b5b906000526020600020906005020183600184610ba49190611cc5565b81548110610bb557610bb4611e41565b5b9060005260206000209060050201600082015481600001556001820160009054906101000a900473ffffffffffffffffffffffffffffffffffffffff168160010160006101000a81548173ffffffffffffffffffffffffffffffffffffffff021916908373ffffffffffffffffffffffffffffffffffffffff1602179055506001820160149054906101000a900460ff168160010160146101000a81548160ff02191690836001811115610c6c57610c6b611e12565b5b021790555060028201548160020155600382015481600301556004820154816004015590505080838381548110610ca657610ca5611e41565b5b90600052602060002090600502016000820151816000015560208201518160010160006101000a81548173ffffffffffffffffffffffffffffffffffffffff021916908373ffffffffffffffffffffffffffffffffffffffff16021790555060408201518160010160146101000a81548160ff02191690836001811115610d3057610d2f611e12565b5b0217905550606082015181600201556080820151816003015560a082015181600401559050508180610d6190611d70565b92505050610a16565b5b5b60046000815480929190610d7f90611d9a565b9190505550505050505050565b610d946115ea565b73ffffffffffffffffffffffffffffffffffffffff16610db2610ec6565b73ffffffffffffffffffffffffffffffffffffffff1614610e08576040517f08c379a0000000000000000000000000000000000000000000000000000000008152600401610dff90611b85565b60405180910390fd5b600073ffffffffffffffffffffffffffffffffffffffff1660008054906101000a900473ffffffffffffffffffffffffffffffffffffffff1673ffffffffffffffffffffffffffffffffffffffff167f8be0079c531659141344cd1fd0a4f28419497f9722a3daafe3b4186f6b6457e060405160405180910390a360008060006101000a81548173ffffffffffffffffffffffffffffffffffffffff021916908373ffffffffffffffffffffffffffffffffffffffff160217905550565b60008060009054906101000a900473ffffffffffffffffffffffffffffffffffffffff16905090565b610ef76115ea565b73ffffffffffffffffffffffffffffffffffffffff16610f15610ec6565b73ffffffffffffffffffffffffffffffffffffffff1614610f6b576040517f08c379a0000000000000000000000000000000000000000000000000000000008152600401610f6290611b85565b60405180910390fd5b60405180604001604052808381526020018273ffffffffffffffffffffffffffffffffffffffff16815250600160008481526020019081526020016000206000820151816000015560208201518160010160006101000a81548173ffffffffffffffffffffffffffffffffffffffff021916908373ffffffffffffffffffffffffffffffffffffffff16021790555090505060028290806001815401808255809150506001900390600052602060002001600090919091909150555050565b6002818154811061103a57600080fd5b906000526020600020016000915090505481565b600073ffffffffffffffffffffffffffffffffffffffff166001600083815260200190815260200160002060010160009054906101000a900473ffffffffffffffffffffffffffffffffffffffff1673ffffffffffffffffffffffffffffffffffffffff1614156110be57600080fd5b81600360003373ffffffffffffffffffffffffffffffffffffffff1673ffffffffffffffffffffffffffffffffffffffff1681526020019081526020016000206000838152602001908152602001600020541015611151576040517f08c379a000000000000000000000000000000000000000000000000000000000815260040161114890611b65565b60405180910390fd5b81600360003373ffffffffffffffffffffffffffffffffffffffff1673ffffffffffffffffffffffffffffffffffffffff1681526020019081526020016000206000838152602001908152602001600020546111ad9190611cc5565b600360003373ffffffffffffffffffffffffffffffffffffffff1673ffffffffffffffffffffffffffffffffffffffff1681526020019081526020016000206000838152602001908152602001600020819055506001600082815260200190815260200160002060010160009054906101000a900473ffffffffffffffffffffffffffffffffffffffff1673ffffffffffffffffffffffffffffffffffffffff1663a9059cbb33846040518363ffffffff1660e01b8152600401611272929190611ab6565b602060405180830381600087803b15801561128c57600080fd5b505af11580156112a0573d6000803e3d6000fd5b505050506040513d601f19601f820116820180604052508101906112c491906116c8565b505050565b60606005600084815260200190815260200160002060008360018111156112f3576112f2611e12565b5b8152602001908152602001600020805480602002602001604051908101604052809291908181526020016000905b8282101561140c57838290600052602060002090600502016040518060c0016040529081600082015481526020016001820160009054906101000a900473ffffffffffffffffffffffffffffffffffffffff1673ffffffffffffffffffffffffffffffffffffffff1673ffffffffffffffffffffffffffffffffffffffff1681526020016001820160149054906101000a900460ff1660018111156113c9576113c8611e12565b5b60018111156113db576113da611e12565b5b8152602001600282015481526020016003820154815260200160048201548152505081526020019060010190611321565b50505050905092915050565b5050565b6114246115ea565b73ffffffffffffffffffffffffffffffffffffffff16611442610ec6565b73ffffffffffffffffffffffffffffffffffffffff1614611498576040517f08c379a000000000000000000000000000000000000000000000000000000000815260040161148f90611b85565b60405180910390fd5b600073ffffffffffffffffffffffffffffffffffffffff168173ffffffffffffffffffffffffffffffffffffffff161415611508576040517f08c379a00000000000000000000000000000000000000000000000000000000081526004016114ff90611b45565b60405180910390fd5b8073ffffffffffffffffffffffffffffffffffffffff1660008054906101000a900473ffffffffffffffffffffffffffffffffffffffff1673ffffffffffffffffffffffffffffffffffffffff167f8be0079c531659141344cd1fd0a4f28419497f9722a3daafe3b4186f6b6457e060405160405180910390a3806000806101000a81548173ffffffffffffffffffffffffffffffffffffffff021916908373ffffffffffffffffffffffffffffffffffffffff16021790555050565b6003602052816000526040600020602052806000526040600020600091509150505481565b600033905090565b60008135905061160181611f2a565b92915050565b60008151905061161681611f41565b92915050565b60008135905061162b81611f58565b92915050565b60008135905061164081611f6f565b92915050565b60008135905061165581611f7f565b92915050565b60006020828403121561167157611670611e70565b5b600061167f848285016115f2565b91505092915050565b6000806040838503121561169f5761169e611e70565b5b60006116ad858286016115f2565b92505060206116be8582860161161c565b9150509250929050565b6000602082840312156116de576116dd611e70565b5b60006116ec84828501611607565b91505092915050565b60006020828403121561170b5761170a611e70565b5b60006117198482850161161c565b91505092915050565b6000806040838503121561173957611738611e70565b5b60006117478582860161161c565b9250506020611758858286016115f2565b9150509250929050565b6000806040838503121561177957611778611e70565b5b60006117878582860161161c565b925050602061179885828601611631565b9150509250929050565b6000806000606084860312156117bb576117ba611e70565b5b60006117c98682870161161c565b93505060206117da86828701611646565b92505060406117eb86828701611646565b9150509250925092565b6000806000806080858703121561180f5761180e611e70565b5b600061181d87828801611631565b945050602061182e8782880161161c565b935050604061183f87828801611646565b925050606061185087828801611646565b91505092959194509250565b60006020828403121561187257611871611e70565b5b600061188084828501611646565b91505092915050565b600080604083850312156118a05761189f611e70565b5b60006118ae85828601611646565b92505060206118bf8582860161161c565b9150509250929050565b60006118d58383611a02565b60c08301905092915050565b6118ea81611cf9565b82525050565b6118f981611cf9565b82525050565b600061190a82611c31565b6119148185611c49565b935061191f83611c21565b8060005b8381101561195057815161193788826118c9565b975061194283611c3c565b925050600181019050611923565b5085935050505092915050565b61196681611d17565b82525050565b61197581611d17565b82525050565b61198481611d5e565b82525050565b61199381611d5e565b82525050565b60006119a6602683611c5a565b91506119b182611e75565b604082019050919050565b60006119c9601083611c5a565b91506119d482611ec4565b602082019050919050565b60006119ec602083611c5a565b91506119f782611eed565b602082019050919050565b60c082016000820151611a186000850182611a7d565b506020820151611a2b60208501826118e1565b506040820151611a3e604085018261197b565b506060820151611a51606085018261195d565b506080820151611a646080850182611a7d565b5060a0820151611a7760a0850182611a7d565b50505050565b611a8681611d54565b82525050565b611a9581611d54565b82525050565b6000602082019050611ab060008301846118f0565b92915050565b6000604082019050611acb60008301856118f0565b611ad86020830184611a8c565b9392505050565b60006020820190508181036000830152611af981846118ff565b905092915050565b6000602082019050611b16600083018461196c565b92915050565b6000604082019050611b31600083018561196c565b611b3e60208301846118f0565b9392505050565b60006020820190508181036000830152611b5e81611999565b9050919050565b60006020820190508181036000830152611b7e816119bc565b9050919050565b60006020820190508181036000830152611b9e816119df565b9050919050565b6000602082019050611bba6000830184611a8c565b92915050565b600060c082019050611bd56000830189611a8c565b611be260208301886118f0565b611bef604083018761198a565b611bfc606083018661196c565b611c096080830185611a8c565b611c1660a0830184611a8c565b979650505050505050565b6000819050602082019050919050565b600081519050919050565b6000602082019050919050565b600082825260208201905092915050565b600082825260208201905092915050565b6000611c7682611d54565b9150611c8183611d54565b9250817fffffffffffffffffffffffffffffffffffffffffffffffffffffffffffffffff0483118215151615611cba57611cb9611de3565b5b828202905092915050565b6000611cd082611d54565b9150611cdb83611d54565b925082821015611cee57611ced611de3565b5b828203905092915050565b6000611d0482611d34565b9050919050565b60008115159050919050565b6000819050919050565b6000819050611d2f82611f16565b919050565b600073ffffffffffffffffffffffffffffffffffffffff82169050919050565b6000819050919050565b6000611d6982611d21565b9050919050565b6000611d7b82611d54565b91506000821415611d8f57611d8e611de3565b5b600182039050919050565b6000611da582611d54565b91507fffffffffffffffffffffffffffffffffffffffffffffffffffffffffffffffff821415611dd857611dd7611de3565b5b600182019050919050565b7f4e487b7100000000000000000000000000000000000000000000000000000000600052601160045260246000fd5b7f4e487b7100000000000000000000000000000000000000000000000000000000600052602160045260246000fd5b7f4e487b7100000000000000000000000000000000000000000000000000000000600052603260045260246000fd5b600080fd5b7f4f776e61626c653a206e6577206f776e657220697320746865207a65726f206160008201527f6464726573730000000000000000000000000000000000000000000000000000602082015250565b7f42616c616e636520457863656564656400000000000000000000000000000000600082015250565b7f4f776e61626c653a2063616c6c6572206973206e6f7420746865206f776e6572600082015250565b60028110611f2757611f26611e12565b5b50565b611f3381611cf9565b8114611f3e57600080fd5b50565b611f4a81611d0b565b8114611f5557600080fd5b50565b611f6181611d17565b8114611f6c57600080fd5b50565b60028110611f7c57600080fd5b50565b611f8881611d54565b8114611f9357600080fd5b5056fea2646970667358221220d81aacc9b46563b2bdaa3634ab7a44cede1160a448337e487f517ac60e0dc9ff64736f6c63430008050033",
  "immutableReferences": {},
  "source": "//SPDX-License: MIT\r\npragma solidity  ^0.8.0;\r\npragma experimental ABIEncoderV2;\r\nimport \"./DexWallet.sol\";\r\n\r\n\r\ncontract Dex is DexWallet {\r\n\r\n//using SafeMath for uint256;\r\n\r\n\r\nenum Side{ BUY, SELL} \r\n//mapping(bytes32 => mapping(uint => order[]));\r\nstruct Order {\r\n    uint id;\r\n    address trader;\r\n    Side side;\r\n    bytes32 ticker;\r\n    uint amount;\r\n    uint price;\r\n}\r\n\r\nuint public nextOrderId = 0;\r\n\r\nmapping(bytes32 => mapping(uint => Order[])) public orderBook;\r\n\r\nfunction getOrderBook(bytes32 ticker, Side side) view public returns(Order[] memory) {\r\n    return orderBook[ticker][uint(side)];\r\n} \r\nfunction createLimitOrder( Side side, bytes32 ticker, uint amount, uint price) public {\r\nif(side == Side.BUY) {\r\n    require(balance[msg.sender][\"ETH\"] >= amount * price);\r\n}\r\nelse if(side == Side.SELL) {\r\n    require(balance[msg.sender][\"ticker\"] >= amount);\r\n}\r\nOrder[] storage orders = orderBook[ticker][uint(side)];\r\n orders.push(Order(nextOrderId, msg.sender, side, ticker, amount, price));\r\n\r\n    //Bubble sort\r\n   uint i = orders.length > 0 ? orders.length -1 : 0;\r\n   \r\n    if(side == Side.BUY){\r\n        while(i > 0){\r\n     if(orders[i - 1].price > orders[i].price) {\r\n         break;\r\n     }\r\n     Order memory orderToMove =orders[i - 1];\r\n     orders[i -1] = orders[i];\r\n     orders[i] = orderToMove;\r\n     i--;\r\n        }\r\n    } \r\n    else if(side == Side.SELL){\r\n         while(i > 0){\r\n     if(orders[i - 1].price < orders[i].price) {\r\n         break;\r\n     }\r\n     Order memory orderToMove =orders[i - 1];\r\n     orders[i -1] = orders[i];\r\n     orders[i] = orderToMove;\r\n     i--;\r\n        }\r\n    }\r\n     \r\n     nextOrderId++;\r\n\r\n}\r\n}",
  "sourcePath": "C:/Users/HP/Desktop/DEX/contracts/DEX.sol",
  "compiler": {
    "name": "solc",
    "version": "0.8.5+commit.a4f2e591.Emscripten.clang"
  },
  "schemaVersion": "3.4.1",
  "updatedAt": "2021-06-23T11:05:49.630Z",
  "networkType": "ethereum",
  "devdoc": {
    "kind": "dev",
    "methods": {
      "owner()": {
        "details": "Returns the address of the current owner."
      },
      "renounceOwnership()": {
        "details": "Leaves the contract without owner. It will not be possible to call `onlyOwner` functions anymore. Can only be called by the current owner. NOTE: Renouncing ownership will leave the contract without an owner, thereby removing any functionality that is only available to the owner."
      },
      "transferOwnership(address)": {
        "details": "Transfers ownership of the contract to a new account (`newOwner`). Can only be called by the current owner."
      }
    },
    "version": 1
  },
  "userdoc": {
    "kind": "user",
    "methods": {},
    "version": 1
  }
}