{
  "contractName": "Dex",
  "abi": [
    {
      "anonymous": false,
      "inputs": [
        {
          "indexed": true,
          "internalType": "address",
          "name": "previousOwner",
          "type": "address"
        },
        {
          "indexed": true,
          "internalType": "address",
          "name": "newOwner",
          "type": "address"
        }
      ],
      "name": "OwnershipTransferred",
      "type": "event"
    },
    {
      "inputs": [
        {
          "internalType": "bytes32",
          "name": "ticker",
          "type": "bytes32"
        },
        {
          "internalType": "address",
          "name": "tokenAddress",
          "type": "address"
        }
      ],
      "name": "addToken",
      "outputs": [],
      "stateMutability": "nonpayable",
      "type": "function"
    },
    {
      "inputs": [
        {
          "internalType": "address",
          "name": "",
          "type": "address"
        },
        {
          "internalType": "bytes32",
          "name": "",
          "type": "bytes32"
        }
      ],
      "name": "balance",
      "outputs": [
        {
          "internalType": "uint256",
          "name": "",
          "type": "uint256"
        }
      ],
      "stateMutability": "view",
      "type": "function",
      "constant": true
    },
    {
      "inputs": [
        {
          "internalType": "uint256",
          "name": "amount",
          "type": "uint256"
        },
        {
          "internalType": "bytes32",
          "name": "ticker",
          "type": "bytes32"
        }
      ],
      "name": "deposit",
      "outputs": [],
      "stateMutability": "nonpayable",
      "type": "function"
    },
    {
      "inputs": [],
      "name": "nextOrderId",
      "outputs": [
        {
          "internalType": "uint256",
          "name": "",
          "type": "uint256"
        }
      ],
      "stateMutability": "view",
      "type": "function",
      "constant": true
    },
    {
      "inputs": [
        {
          "internalType": "bytes32",
          "name": "",
          "type": "bytes32"
        },
        {
          "internalType": "uint256",
          "name": "",
          "type": "uint256"
        },
        {
          "internalType": "uint256",
          "name": "",
          "type": "uint256"
        }
      ],
      "name": "orderBook",
      "outputs": [
        {
          "internalType": "uint256",
          "name": "id",
          "type": "uint256"
        },
        {
          "internalType": "address",
          "name": "trader",
          "type": "address"
        },
        {
          "internalType": "enum Dex.Side",
          "name": "side",
          "type": "uint8"
        },
        {
          "internalType": "bytes32",
          "name": "ticker",
          "type": "bytes32"
        },
        {
          "internalType": "uint256",
          "name": "amount",
          "type": "uint256"
        },
        {
          "internalType": "uint256",
          "name": "price",
          "type": "uint256"
        },
        {
          "internalType": "uint256",
          "name": "filled",
          "type": "uint256"
        }
      ],
      "stateMutability": "view",
      "type": "function",
      "constant": true
    },
    {
      "inputs": [],
      "name": "owner",
      "outputs": [
        {
          "internalType": "address",
          "name": "",
          "type": "address"
        }
      ],
      "stateMutability": "view",
      "type": "function",
      "constant": true
    },
    {
      "inputs": [],
      "name": "renounceOwnership",
      "outputs": [],
      "stateMutability": "nonpayable",
      "type": "function"
    },
    {
      "inputs": [
        {
          "internalType": "uint256",
          "name": "",
          "type": "uint256"
        }
      ],
      "name": "tokenList",
      "outputs": [
        {
          "internalType": "bytes32",
          "name": "",
          "type": "bytes32"
        }
      ],
      "stateMutability": "view",
      "type": "function",
      "constant": true
    },
    {
      "inputs": [
        {
          "internalType": "bytes32",
          "name": "",
          "type": "bytes32"
        }
      ],
      "name": "tokenMapping",
      "outputs": [
        {
          "internalType": "bytes32",
          "name": "ticker",
          "type": "bytes32"
        },
        {
          "internalType": "address",
          "name": "tokenAddress",
          "type": "address"
        }
      ],
      "stateMutability": "view",
      "type": "function",
      "constant": true
    },
    {
      "inputs": [
        {
          "internalType": "address",
          "name": "newOwner",
          "type": "address"
        }
      ],
      "name": "transferOwnership",
      "outputs": [],
      "stateMutability": "nonpayable",
      "type": "function"
    },
    {
      "inputs": [
        {
          "internalType": "uint256",
          "name": "amount",
          "type": "uint256"
        },
        {
          "internalType": "bytes32",
          "name": "ticker",
          "type": "bytes32"
        }
      ],
      "name": "withdraw",
      "outputs": [],
      "stateMutability": "nonpayable",
      "type": "function"
    },
    {
      "inputs": [
        {
          "internalType": "bytes32",
          "name": "ticker",
          "type": "bytes32"
        },
        {
          "internalType": "enum Dex.Side",
          "name": "side",
          "type": "uint8"
        }
      ],
      "name": "getOrderBook",
      "outputs": [
        {
          "components": [
            {
              "internalType": "uint256",
              "name": "id",
              "type": "uint256"
            },
            {
              "internalType": "address",
              "name": "trader",
              "type": "address"
            },
            {
              "internalType": "enum Dex.Side",
              "name": "side",
              "type": "uint8"
            },
            {
              "internalType": "bytes32",
              "name": "ticker",
              "type": "bytes32"
            },
            {
              "internalType": "uint256",
              "name": "amount",
              "type": "uint256"
            },
            {
              "internalType": "uint256",
              "name": "price",
              "type": "uint256"
            },
            {
              "internalType": "uint256",
              "name": "filled",
              "type": "uint256"
            }
          ],
          "internalType": "struct Dex.Order[]",
          "name": "",
          "type": "tuple[]"
        }
      ],
      "stateMutability": "view",
      "type": "function",
      "constant": true
    },
    {
      "inputs": [
        {
          "internalType": "enum Dex.Side",
          "name": "side",
          "type": "uint8"
        },
        {
          "internalType": "bytes32",
          "name": "ticker",
          "type": "bytes32"
        },
        {
          "internalType": "uint256",
          "name": "amount",
          "type": "uint256"
        },
        {
          "internalType": "uint256",
          "name": "price",
          "type": "uint256"
        }
      ],
      "name": "createLimitOrder",
      "outputs": [],
      "stateMutability": "nonpayable",
      "type": "function"
    },
    {
      "inputs": [
        {
          "internalType": "enum Dex.Side",
          "name": "side",
          "type": "uint8"
        },
        {
          "internalType": "bytes32",
          "name": "ticker",
          "type": "bytes32"
        },
        {
          "internalType": "uint256",
          "name": "amount",
          "type": "uint256"
        }
      ],
      "name": "createMarketOrder",
      "outputs": [],
      "stateMutability": "nonpayable",
      "type": "function"
    }
  ],
  "bytecode": "0x6080604052600060045534801561001557600080fd5b5060006100266100c960201b60201c565b9050806000806101000a81548173ffffffffffffffffffffffffffffffffffffffff021916908373ffffffffffffffffffffffffffffffffffffffff1602179055508073ffffffffffffffffffffffffffffffffffffffff16600073ffffffffffffffffffffffffffffffffffffffff167f8be0079c531659141344cd1fd0a4f28419497f9722a3daafe3b4186f6b6457e060405160405180910390a3506100d1565b600033905090565b61320380620000e16000396000f3fe608060405234801561001057600080fd5b50600436106100ea5760003560e01c806399ec2f1c1161008c578063ba58ea6811610066578063ba58ea681461023c578063c9630cb01461026c578063f2fde38b14610288578063feb8be82146102a4576100ea565b806399ec2f1c146101d45780639ead7222146101f0578063a8d2021a14610220576100ea565b80636f3b62f9116100c85780636f3b62f914610174578063715018a6146101905780638da5cb5b1461019a5780639776aacf146101b8576100ea565b80630bb431b6146100ef5780632a58b33014610125578063667cb4ba14610143575b600080fd5b6101096004803603810190610104919061283d565b6102d4565b60405161011c9796959493929190612d3b565b60405180910390f35b61012d61036d565b60405161013a9190612d20565b60405180910390f35b61015d60048036038101906101589190612790565b610373565b60405161016b929190612c77565b60405180910390f35b61018e600480360381019061018991906128e3565b6103b7565b005b610198610e17565b005b6101a2610f51565b6040516101af9190612bbf565b60405180910390f35b6101d260048036038101906101cd91906127bd565b610f7a565b005b6101ee60048036038101906101e99190612890565b6110b5565b005b61020a6004803603810190610205919061294a565b611f1e565b6040516102179190612c5c565b60405180910390f35b61023a60048036038101906102359190612977565b611f42565b005b610256600480360381019061025191906127fd565b6121bd565b6040516102639190612c3a565b60405180910390f35b61028660048036038101906102819190612977565b612316565b005b6102a2600480360381019061029d91906126f6565b6124b7565b005b6102be60048036038101906102b99190612723565b612660565b6040516102cb9190612d20565b60405180910390f35b600560205282600052604060002060205281600052604060002081815481106102fc57600080fd5b906000526020600020906006020160009250925050508060000154908060010160009054906101000a900473ffffffffffffffffffffffffffffffffffffffff16908060010160149054906101000a900460ff16908060020154908060030154908060040154908060050154905087565b60045481565b60016020528060005260406000206000915090508060000154908060010160009054906101000a900473ffffffffffffffffffffffffffffffffffffffff16905082565b600060018111156103cb576103ca612ff1565b5b8460018111156103de576103dd612ff1565b5b14156104715780826103f09190612e4a565b600360003373ffffffffffffffffffffffffffffffffffffffff1673ffffffffffffffffffffffffffffffffffffffff16815260200190815260200160002060007f4554480000000000000000000000000000000000000000000000000000000000815260200190815260200160002054101561046c57600080fd5b61051c565b60018081111561048457610483612ff1565b5b84600181111561049757610496612ff1565b5b141561051b5781600360003373ffffffffffffffffffffffffffffffffffffffff1673ffffffffffffffffffffffffffffffffffffffff16815260200190815260200160002060007f7469636b65720000000000000000000000000000000000000000000000000000815260200190815260200160002054101561051a57600080fd5b5b5b600060056000858152602001908152602001600020600086600181111561054657610545612ff1565b5b81526020019081526020016000209050806040518060e0016040528060045481526020013373ffffffffffffffffffffffffffffffffffffffff16815260200187600181111561059957610598612ff1565b5b8152602001868152602001858152602001848152602001600081525090806001815401808255809150506001900390600052602060002090600602016000909190919091506000820151816000015560208201518160010160006101000a81548173ffffffffffffffffffffffffffffffffffffffff021916908373ffffffffffffffffffffffffffffffffffffffff16021790555060408201518160010160146101000a81548160ff0219169083600181111561065a57610659612ff1565b5b0217905550606082015181600201556080820151816003015560a0820151816004015560c08201518160050155505060008082805490501161069d5760006106af565b600182805490506106ae9190612ea4565b5b9050600060018111156106c5576106c4612ff1565b5b8660018111156106d8576106d7612ff1565b5b1415610a56575b6000811115610a51578181815481106106fb576106fa61304f565b5b9060005260206000209060060201600401548260018361071b9190612ea4565b8154811061072c5761072b61304f565b5b906000526020600020906006020160040154111561074957610a51565b6000826001836107599190612ea4565b8154811061076a5761076961304f565b5b90600052602060002090600602016040518060e0016040529081600082015481526020016001820160009054906101000a900473ffffffffffffffffffffffffffffffffffffffff1673ffffffffffffffffffffffffffffffffffffffff1673ffffffffffffffffffffffffffffffffffffffff1681526020016001820160149054906101000a900460ff16600181111561080857610807612ff1565b5b600181111561081a57610819612ff1565b5b8152602001600282015481526020016003820154815260200160048201548152602001600582015481525050905082828154811061085b5761085a61304f565b5b9060005260206000209060060201836001846108779190612ea4565b815481106108885761088761304f565b5b9060005260206000209060060201600082015481600001556001820160009054906101000a900473ffffffffffffffffffffffffffffffffffffffff168160010160006101000a81548173ffffffffffffffffffffffffffffffffffffffff021916908373ffffffffffffffffffffffffffffffffffffffff1602179055506001820160149054906101000a900460ff168160010160146101000a81548160ff0219169083600181111561093f5761093e612ff1565b5b021790555060028201548160020155600382015481600301556004820154816004015560058201548160050155905050808383815481106109835761098261304f565b5b90600052602060002090600602016000820151816000015560208201518160010160006101000a81548173ffffffffffffffffffffffffffffffffffffffff021916908373ffffffffffffffffffffffffffffffffffffffff16021790555060408201518160010160146101000a81548160ff02191690836001811115610a0d57610a0c612ff1565b5b0217905550606082015181600201556080820151816003015560a0820151816004015560c082015181600501559050508180610a4890612f4f565b925050506106df565b610df7565b600180811115610a6957610a68612ff1565b5b866001811115610a7c57610a7b612ff1565b5b1415610df6575b6000811115610df557818181548110610a9f57610a9e61304f565b5b90600052602060002090600602016004015482600183610abf9190612ea4565b81548110610ad057610acf61304f565b5b9060005260206000209060060201600401541015610aed57610df5565b600082600183610afd9190612ea4565b81548110610b0e57610b0d61304f565b5b90600052602060002090600602016040518060e0016040529081600082015481526020016001820160009054906101000a900473ffffffffffffffffffffffffffffffffffffffff1673ffffffffffffffffffffffffffffffffffffffff1673ffffffffffffffffffffffffffffffffffffffff1681526020016001820160149054906101000a900460ff166001811115610bac57610bab612ff1565b5b6001811115610bbe57610bbd612ff1565b5b81526020016002820154815260200160038201548152602001600482015481526020016005820154815250509050828281548110610bff57610bfe61304f565b5b906000526020600020906006020183600184610c1b9190612ea4565b81548110610c2c57610c2b61304f565b5b9060005260206000209060060201600082015481600001556001820160009054906101000a900473ffffffffffffffffffffffffffffffffffffffff168160010160006101000a81548173ffffffffffffffffffffffffffffffffffffffff021916908373ffffffffffffffffffffffffffffffffffffffff1602179055506001820160149054906101000a900460ff168160010160146101000a81548160ff02191690836001811115610ce357610ce2612ff1565b5b02179055506002820154816002015560038201548160030155600482015481600401556005820154816005015590505080838381548110610d2757610d2661304f565b5b90600052602060002090600602016000820151816000015560208201518160010160006101000a81548173ffffffffffffffffffffffffffffffffffffffff021916908373ffffffffffffffffffffffffffffffffffffffff16021790555060408201518160010160146101000a81548160ff02191690836001811115610db157610db0612ff1565b5b0217905550606082015181600201556080820151816003015560a0820151816004015560c082015181600501559050508180610dec90612f4f565b92505050610a83565b5b5b60046000815480929190610e0a90612f79565b9190505550505050505050565b610e1f612685565b73ffffffffffffffffffffffffffffffffffffffff16610e3d610f51565b73ffffffffffffffffffffffffffffffffffffffff1614610e93576040517f08c379a0000000000000000000000000000000000000000000000000000000008152600401610e8a90612ce0565b60405180910390fd5b600073ffffffffffffffffffffffffffffffffffffffff1660008054906101000a900473ffffffffffffffffffffffffffffffffffffffff1673ffffffffffffffffffffffffffffffffffffffff167f8be0079c531659141344cd1fd0a4f28419497f9722a3daafe3b4186f6b6457e060405160405180910390a360008060006101000a81548173ffffffffffffffffffffffffffffffffffffffff021916908373ffffffffffffffffffffffffffffffffffffffff160217905550565b60008060009054906101000a900473ffffffffffffffffffffffffffffffffffffffff16905090565b610f82612685565b73ffffffffffffffffffffffffffffffffffffffff16610fa0610f51565b73ffffffffffffffffffffffffffffffffffffffff1614610ff6576040517f08c379a0000000000000000000000000000000000000000000000000000000008152600401610fed90612ce0565b60405180910390fd5b60405180604001604052808381526020018273ffffffffffffffffffffffffffffffffffffffff16815250600160008481526020019081526020016000206000820151816000015560208201518160010160006101000a81548173ffffffffffffffffffffffffffffffffffffffff021916908373ffffffffffffffffffffffffffffffffffffffff16021790555090505060028290806001815401808255809150506001900390600052602060002001600090919091909150555050565b6001808111156110c8576110c7612ff1565b5b8360018111156110db576110da612ff1565b5b14156111755780600360003373ffffffffffffffffffffffffffffffffffffffff1673ffffffffffffffffffffffffffffffffffffffff1681526020019081526020016000206000848152602001908152602001600020541015611174576040517f08c379a000000000000000000000000000000000000000000000000000000000815260040161116b90612d00565b60405180910390fd5b5b600080600181111561118a57611189612ff1565b5b84600181111561119d5761119c612ff1565b5b14156111ac57600190506111b1565b600090505b600060056000858152602001908152602001600020600083815260200190815260200160002090506000805b8280549050811080156111ef57508482105b15611cca57600082866112029190612ea4565b905060008483815481106112195761121861304f565b5b90600052602060002090600602016005015485848154811061123e5761123d61304f565b5b90600052602060002090600602016003015461125a9190612ea4565b905060008282111561126e57829050611272565b8190505b808561127e9190612df4565b9450808685815481106112945761129361304f565b5b9060005260206000209060060201600501546112b09190612df4565b8685815481106112c3576112c261304f565b5b90600052602060002090600602016005018190555060008685815481106112ed576112ec61304f565b5b9060005260206000209060060201600401548261130a9190612e4a565b9050600060018111156113205761131f612ff1565b5b8b600181111561133357611332612ff1565b5b14156118365786858154811061134c5761134b61304f565b5b906000526020600020906006020160040154826113699190612e4a565b600360003373ffffffffffffffffffffffffffffffffffffffff1673ffffffffffffffffffffffffffffffffffffffff16815260200190815260200160002060007f455448000000000000000000000000000000000000000000000000000000000081526020019081526020016000205410156113e557600080fd5b81600360003373ffffffffffffffffffffffffffffffffffffffff1673ffffffffffffffffffffffffffffffffffffffff16815260200190815260200160002060008c8152602001908152602001600020546114419190612df4565b600360003373ffffffffffffffffffffffffffffffffffffffff1673ffffffffffffffffffffffffffffffffffffffff16815260200190815260200160002060008c81526020019081526020016000208190555080600360003373ffffffffffffffffffffffffffffffffffffffff1673ffffffffffffffffffffffffffffffffffffffff16815260200190815260200160002060007f45544800000000000000000000000000000000000000000000000000000000008152602001908152602001600020546115119190612ea4565b600360003373ffffffffffffffffffffffffffffffffffffffff1673ffffffffffffffffffffffffffffffffffffffff16815260200190815260200160002060007f4554480000000000000000000000000000000000000000000000000000000000815260200190815260200160002081905550816003600089888154811061159d5761159c61304f565b5b906000526020600020906006020160010160009054906101000a900473ffffffffffffffffffffffffffffffffffffffff1673ffffffffffffffffffffffffffffffffffffffff1673ffffffffffffffffffffffffffffffffffffffff16815260200190815260200160002060008c8152602001908152602001600020546116259190612ea4565b6003600089888154811061163c5761163b61304f565b5b906000526020600020906006020160010160009054906101000a900473ffffffffffffffffffffffffffffffffffffffff1673ffffffffffffffffffffffffffffffffffffffff1673ffffffffffffffffffffffffffffffffffffffff16815260200190815260200160002060008c81526020019081526020016000208190555080600360008988815481106116d5576116d461304f565b5b906000526020600020906006020160010160009054906101000a900473ffffffffffffffffffffffffffffffffffffffff1673ffffffffffffffffffffffffffffffffffffffff1673ffffffffffffffffffffffffffffffffffffffff16815260200190815260200160002060007f455448000000000000000000000000000000000000000000000000000000000081526020019081526020016000205461177d9190612df4565b600360008988815481106117945761179361304f565b5b906000526020600020906006020160010160009054906101000a900473ffffffffffffffffffffffffffffffffffffffff1673ffffffffffffffffffffffffffffffffffffffff1673ffffffffffffffffffffffffffffffffffffffff16815260200190815260200160002060007f45544800000000000000000000000000000000000000000000000000000000008152602001908152602001600020819055505b60018081111561184957611848612ff1565b5b8b600181111561185c5761185b612ff1565b5b1415611cb35781600360003373ffffffffffffffffffffffffffffffffffffffff1673ffffffffffffffffffffffffffffffffffffffff16815260200190815260200160002060008c8152602001908152602001600020546118be9190612ea4565b600360003373ffffffffffffffffffffffffffffffffffffffff1673ffffffffffffffffffffffffffffffffffffffff16815260200190815260200160002060008c81526020019081526020016000208190555080600360003373ffffffffffffffffffffffffffffffffffffffff1673ffffffffffffffffffffffffffffffffffffffff16815260200190815260200160002060007f455448000000000000000000000000000000000000000000000000000000000081526020019081526020016000205461198e9190612df4565b600360003373ffffffffffffffffffffffffffffffffffffffff1673ffffffffffffffffffffffffffffffffffffffff16815260200190815260200160002060007f45544800000000000000000000000000000000000000000000000000000000008152602001908152602001600020819055508160036000898881548110611a1a57611a1961304f565b5b906000526020600020906006020160010160009054906101000a900473ffffffffffffffffffffffffffffffffffffffff1673ffffffffffffffffffffffffffffffffffffffff1673ffffffffffffffffffffffffffffffffffffffff16815260200190815260200160002060008c815260200190815260200160002054611aa29190612df4565b60036000898881548110611ab957611ab861304f565b5b906000526020600020906006020160010160009054906101000a900473ffffffffffffffffffffffffffffffffffffffff1673ffffffffffffffffffffffffffffffffffffffff1673ffffffffffffffffffffffffffffffffffffffff16815260200190815260200160002060008c8152602001908152602001600020819055508060036000898881548110611b5257611b5161304f565b5b906000526020600020906006020160010160009054906101000a900473ffffffffffffffffffffffffffffffffffffffff1673ffffffffffffffffffffffffffffffffffffffff1673ffffffffffffffffffffffffffffffffffffffff16815260200190815260200160002060007f4554480000000000000000000000000000000000000000000000000000000000815260200190815260200160002054611bfa9190612ea4565b60036000898881548110611c1157611c1061304f565b5b906000526020600020906006020160010160009054906101000a900473ffffffffffffffffffffffffffffffffffffffff1673ffffffffffffffffffffffffffffffffffffffff1673ffffffffffffffffffffffffffffffffffffffff16815260200190815260200160002060007f45544800000000000000000000000000000000000000000000000000000000008152602001908152602001600020819055505b505050508080611cc290612f79565b9150506111dd565b505b60008280549050118015611d29575081600081548110611cef57611cee61304f565b5b90600052602060002090600602016003015482600081548110611d1557611d1461304f565b5b906000526020600020906006020160050154145b15611f165760005b60018380549050611d429190612ea4565b811015611e835782600182611d579190612df4565b81548110611d6857611d6761304f565b5b9060005260206000209060060201838281548110611d8957611d8861304f565b5b9060005260206000209060060201600082015481600001556001820160009054906101000a900473ffffffffffffffffffffffffffffffffffffffff168160010160006101000a81548173ffffffffffffffffffffffffffffffffffffffff021916908373ffffffffffffffffffffffffffffffffffffffff1602179055506001820160149054906101000a900460ff168160010160146101000a81548160ff02191690836001811115611e4057611e3f612ff1565b5b0217905550600282015481600201556003820154816003015560048201548160040155600582015481600501559050508080611e7b90612f79565b915050611d31565b5081805480611e9557611e94613020565b5b60019003818190600052602060002090600602016000808201600090556001820160006101000a81549073ffffffffffffffffffffffffffffffffffffffff02191690556001820160146101000a81549060ff0219169055600282016000905560038201600090556004820160009055600582016000905550509055611ccc565b505050505050565b60028181548110611f2e57600080fd5b906000526020600020016000915090505481565b600073ffffffffffffffffffffffffffffffffffffffff166001600083815260200190815260200160002060010160009054906101000a900473ffffffffffffffffffffffffffffffffffffffff1673ffffffffffffffffffffffffffffffffffffffff161415611fb257600080fd5b81600360003373ffffffffffffffffffffffffffffffffffffffff1673ffffffffffffffffffffffffffffffffffffffff1681526020019081526020016000206000838152602001908152602001600020541015612045576040517f08c379a000000000000000000000000000000000000000000000000000000000815260040161203c90612cc0565b60405180910390fd5b81600360003373ffffffffffffffffffffffffffffffffffffffff1673ffffffffffffffffffffffffffffffffffffffff1681526020019081526020016000206000838152602001908152602001600020546120a19190612ea4565b600360003373ffffffffffffffffffffffffffffffffffffffff1673ffffffffffffffffffffffffffffffffffffffff1681526020019081526020016000206000838152602001908152602001600020819055506001600082815260200190815260200160002060010160009054906101000a900473ffffffffffffffffffffffffffffffffffffffff1673ffffffffffffffffffffffffffffffffffffffff1663a9059cbb33846040518363ffffffff1660e01b8152600401612166929190612c11565b602060405180830381600087803b15801561218057600080fd5b505af1158015612194573d6000803e3d6000fd5b505050506040513d601f19601f820116820180604052508101906121b89190612763565b505050565b60606005600084815260200190815260200160002060008360018111156121e7576121e6612ff1565b5b8152602001908152602001600020805480602002602001604051908101604052809291908181526020016000905b8282101561230a57838290600052602060002090600602016040518060e0016040529081600082015481526020016001820160009054906101000a900473ffffffffffffffffffffffffffffffffffffffff1673ffffffffffffffffffffffffffffffffffffffff1673ffffffffffffffffffffffffffffffffffffffff1681526020016001820160149054906101000a900460ff1660018111156122bd576122bc612ff1565b5b60018111156122cf576122ce612ff1565b5b815260200160028201548152602001600382015481526020016004820154815260200160058201548152505081526020019060010190612215565b50505050905092915050565b600073ffffffffffffffffffffffffffffffffffffffff166001600083815260200190815260200160002060010160009054906101000a900473ffffffffffffffffffffffffffffffffffffffff1673ffffffffffffffffffffffffffffffffffffffff16141561238657600080fd5b6001600082815260200190815260200160002060010160009054906101000a900473ffffffffffffffffffffffffffffffffffffffff1673ffffffffffffffffffffffffffffffffffffffff166323b872dd3330856040518463ffffffff1660e01b81526004016123f993929190612bda565b602060405180830381600087803b15801561241357600080fd5b505af1158015612427573d6000803e3d6000fd5b505050506040513d601f19601f8201168201806040525081019061244b9190612763565b5081600360003373ffffffffffffffffffffffffffffffffffffffff1673ffffffffffffffffffffffffffffffffffffffff168152602001908152602001600020600083815260200190815260200160002060008282546124ac9190612df4565b925050819055505050565b6124bf612685565b73ffffffffffffffffffffffffffffffffffffffff166124dd610f51565b73ffffffffffffffffffffffffffffffffffffffff1614612533576040517f08c379a000000000000000000000000000000000000000000000000000000000815260040161252a90612ce0565b60405180910390fd5b600073ffffffffffffffffffffffffffffffffffffffff168173ffffffffffffffffffffffffffffffffffffffff1614156125a3576040517f08c379a000000000000000000000000000000000000000000000000000000000815260040161259a90612ca0565b60405180910390fd5b8073ffffffffffffffffffffffffffffffffffffffff1660008054906101000a900473ffffffffffffffffffffffffffffffffffffffff1673ffffffffffffffffffffffffffffffffffffffff167f8be0079c531659141344cd1fd0a4f28419497f9722a3daafe3b4186f6b6457e060405160405180910390a3806000806101000a81548173ffffffffffffffffffffffffffffffffffffffff021916908373ffffffffffffffffffffffffffffffffffffffff16021790555050565b6003602052816000526040600020602052806000526040600020600091509150505481565b600033905090565b60008135905061269c81613161565b92915050565b6000815190506126b181613178565b92915050565b6000813590506126c68161318f565b92915050565b6000813590506126db816131a6565b92915050565b6000813590506126f0816131b6565b92915050565b60006020828403121561270c5761270b61307e565b5b600061271a8482850161268d565b91505092915050565b6000806040838503121561273a5761273961307e565b5b60006127488582860161268d565b9250506020612759858286016126b7565b9150509250929050565b6000602082840312156127795761277861307e565b5b6000612787848285016126a2565b91505092915050565b6000602082840312156127a6576127a561307e565b5b60006127b4848285016126b7565b91505092915050565b600080604083850312156127d4576127d361307e565b5b60006127e2858286016126b7565b92505060206127f38582860161268d565b9150509250929050565b600080604083850312156128145761281361307e565b5b6000612822858286016126b7565b9250506020612833858286016126cc565b9150509250929050565b6000806000606084860312156128565761285561307e565b5b6000612864868287016126b7565b9350506020612875868287016126e1565b9250506040612886868287016126e1565b9150509250925092565b6000806000606084860312156128a9576128a861307e565b5b60006128b7868287016126cc565b93505060206128c8868287016126b7565b92505060406128d9868287016126e1565b9150509250925092565b600080600080608085870312156128fd576128fc61307e565b5b600061290b878288016126cc565b945050602061291c878288016126b7565b935050604061292d878288016126e1565b925050606061293e878288016126e1565b91505092959194509250565b6000602082840312156129605761295f61307e565b5b600061296e848285016126e1565b91505092915050565b6000806040838503121561298e5761298d61307e565b5b600061299c858286016126e1565b92505060206129ad858286016126b7565b9150509250929050565b60006129c38383612b13565b60e08301905092915050565b6129d881612ed8565b82525050565b6129e781612ed8565b82525050565b60006129f882612dba565b612a028185612dd2565b9350612a0d83612daa565b8060005b83811015612a3e578151612a2588826129b7565b9750612a3083612dc5565b925050600181019050612a11565b5085935050505092915050565b612a5481612ef6565b82525050565b612a6381612ef6565b82525050565b612a7281612f3d565b82525050565b612a8181612f3d565b82525050565b6000612a94602683612de3565b9150612a9f82613083565b604082019050919050565b6000612ab7601083612de3565b9150612ac2826130d2565b602082019050919050565b6000612ada602083612de3565b9150612ae5826130fb565b602082019050919050565b6000612afd601483612de3565b9150612b0882613124565b602082019050919050565b60e082016000820151612b296000850182612ba1565b506020820151612b3c60208501826129cf565b506040820151612b4f6040850182612a69565b506060820151612b626060850182612a4b565b506080820151612b756080850182612ba1565b5060a0820151612b8860a0850182612ba1565b5060c0820151612b9b60c0850182612ba1565b50505050565b612baa81612f33565b82525050565b612bb981612f33565b82525050565b6000602082019050612bd460008301846129de565b92915050565b6000606082019050612bef60008301866129de565b612bfc60208301856129de565b612c096040830184612bb0565b949350505050565b6000604082019050612c2660008301856129de565b612c336020830184612bb0565b9392505050565b60006020820190508181036000830152612c5481846129ed565b905092915050565b6000602082019050612c716000830184612a5a565b92915050565b6000604082019050612c8c6000830185612a5a565b612c9960208301846129de565b9392505050565b60006020820190508181036000830152612cb981612a87565b9050919050565b60006020820190508181036000830152612cd981612aaa565b9050919050565b60006020820190508181036000830152612cf981612acd565b9050919050565b60006020820190508181036000830152612d1981612af0565b9050919050565b6000602082019050612d356000830184612bb0565b92915050565b600060e082019050612d50600083018a612bb0565b612d5d60208301896129de565b612d6a6040830188612a78565b612d776060830187612a5a565b612d846080830186612bb0565b612d9160a0830185612bb0565b612d9e60c0830184612bb0565b98975050505050505050565b6000819050602082019050919050565b600081519050919050565b6000602082019050919050565b600082825260208201905092915050565b600082825260208201905092915050565b6000612dff82612f33565b9150612e0a83612f33565b9250827fffffffffffffffffffffffffffffffffffffffffffffffffffffffffffffffff03821115612e3f57612e3e612fc2565b5b828201905092915050565b6000612e5582612f33565b9150612e6083612f33565b9250817fffffffffffffffffffffffffffffffffffffffffffffffffffffffffffffffff0483118215151615612e9957612e98612fc2565b5b828202905092915050565b6000612eaf82612f33565b9150612eba83612f33565b925082821015612ecd57612ecc612fc2565b5b828203905092915050565b6000612ee382612f13565b9050919050565b60008115159050919050565b6000819050919050565b6000819050612f0e8261314d565b919050565b600073ffffffffffffffffffffffffffffffffffffffff82169050919050565b6000819050919050565b6000612f4882612f00565b9050919050565b6000612f5a82612f33565b91506000821415612f6e57612f6d612fc2565b5b600182039050919050565b6000612f8482612f33565b91507fffffffffffffffffffffffffffffffffffffffffffffffffffffffffffffffff821415612fb757612fb6612fc2565b5b600182019050919050565b7f4e487b7100000000000000000000000000000000000000000000000000000000600052601160045260246000fd5b7f4e487b7100000000000000000000000000000000000000000000000000000000600052602160045260246000fd5b7f4e487b7100000000000000000000000000000000000000000000000000000000600052603160045260246000fd5b7f4e487b7100000000000000000000000000000000000000000000000000000000600052603260045260246000fd5b600080fd5b7f4f776e61626c653a206e6577206f776e657220697320746865207a65726f206160008201527f6464726573730000000000000000000000000000000000000000000000000000602082015250565b7f42616c616e636520457863656564656400000000000000000000000000000000600082015250565b7f4f776e61626c653a2063616c6c6572206973206e6f7420746865206f776e6572600082015250565b7f696e73756666696369656e742062616c616e6365000000000000000000000000600082015250565b6002811061315e5761315d612ff1565b5b50565b61316a81612ed8565b811461317557600080fd5b50565b61318181612eea565b811461318c57600080fd5b50565b61319881612ef6565b81146131a357600080fd5b50565b600281106131b357600080fd5b50565b6131bf81612f33565b81146131ca57600080fd5b5056fea26469706673582212205c89b28e279ade08178d95ad31c58487a4422c81fc31cf5728e4e79d92691cf364736f6c63430008060033",
  "immutableReferences": {},
  "source": "//SPDX-License: MIT\r\npragma solidity  ^0.8.0;\r\npragma experimental ABIEncoderV2;\r\nimport \"./DexWallet.sol\";\r\n\r\n\r\ncontract Dex is DexWallet {\r\n\r\n//using SafeMath for uint256;\r\n\r\n\r\nenum Side{ BUY, SELL} \r\n//mapping(bytes32 => mapping(uint => order[]));\r\nstruct Order {\r\n    uint id;\r\n    address trader;\r\n    Side side;\r\n    bytes32 ticker;\r\n    uint amount;\r\n    uint price;\r\n    uint filled;\r\n}\r\n//, 5Side side == 0;\r\nuint public nextOrderId = 0;\r\n\r\nmapping(bytes32 => mapping(uint => Order[])) public orderBook;\r\n\r\nfunction getOrderBook(bytes32 ticker, Side side) view public returns(Order[] memory) {\r\n    return orderBook[ticker][uint(side)];\r\n} \r\nfunction createLimitOrder( Side side, bytes32 ticker, uint amount, uint price) public {\r\nif(side == Side.BUY) {\r\n    require(balance[msg.sender][\"ETH\"] >= amount * price );\r\n}\r\nelse if(side == Side.SELL) {\r\n    require(balance[msg.sender][\"ticker\"] >= amount);\r\n}\r\nOrder[] storage orders = orderBook[ticker][uint(side)];\r\n orders.push(Order(nextOrderId, msg.sender, side, ticker, amount, price, 0));\r\n\r\n    //Bubble sort\r\n   uint i = orders.length > 0 ? orders.length -1 : 0;\r\n   \r\n    if(side == Side.BUY){\r\n        while(i > 0){\r\n     if(orders[i - 1].price > orders[i].price) {\r\n         break;\r\n     }\r\n     Order memory orderToMove =orders[i - 1];\r\n     orders[i -1] = orders[i];\r\n     orders[i] = orderToMove;\r\n     i--;\r\n        }\r\n    } \r\n    else if(side == Side.SELL){\r\n         while(i > 0){\r\n     if(orders[i - 1].price < orders[i].price) {\r\n         break;\r\n     }\r\n     Order memory orderToMove =orders[i - 1];\r\n     orders[i -1] = orders[i];\r\n     orders[i] = orderToMove;\r\n     i--;\r\n        }\r\n    }\r\n     \r\n     nextOrderId++;\r\n\r\n}\r\n\r\nfunction createMarketOrder( Side side, bytes32 ticker, uint amount) public {\r\n   if(side == Side.SELL){\r\n       require(balance[msg.sender][ticker] >= amount, \"insufficient balance\");\r\n   }\r\n  // require(balances[msg.sender[ticker] >= amount, \"insufficient balance\");\r\n   \r\n    uint orderBookSide;\r\n    if(side == Side.BUY) {\r\n        orderBookSide = 1;\r\n    } \r\n    else{\r\n        orderBookSide = 0;\r\n    }\r\n    Order[] storage orders = orderBook[ticker][orderBookSide];\r\n        // cost storage  cost = orders[i] * price;\r\n    uint totalfilled = 0;\r\n    for (uint256 i = 0; i < orders.length && totalfilled < amount; i++){\r\n        //how much we can fill from order [1]\r\n        uint leftToFilled = amount - totalfilled;\r\n         uint availableToFill = orders[i].amount - orders[i].filled;\r\n         uint filled =0;\r\n         if(availableToFill > leftToFilled) {\r\n             filled = leftToFilled;\r\n         }\r\n         else{\r\n             filled = availableToFill;\r\n         }\r\n              \r\n            totalfilled = totalfilled + filled;\r\n            orders[i].filled = orders[i].filled + filled;\r\n            uint cost = filled * orders[i].price;\r\n            \r\n                   //update totalfilled\r\n         if(side == Side.BUY){\r\n            require(balance[msg.sender][\"ETH\"] >= filled * orders[i].price);\r\n            //transfer eth from buyer to seller\r\n            balance[msg.sender][ticker] = balance[msg.sender][ticker] + filled;\r\n             balance[msg.sender][\"ETH\"] = balance[msg.sender][\"ETH\"] - cost;\r\n            // send tokens from seller to buy\r\n            // send tokens from seller to buyer\r\n\r\n            balance[orders[i].trader][ticker] = balance[orders[i].trader][ticker] - filled;\r\n            balance[orders[i].trader][\"ETH\"] = balance[orders[i].trader][\"ETH\"] + cost;\r\n\r\n         }\r\n        //excute trade and shift balances between buyer and seller\r\n          if(side == Side.SELL){\r\n               balance[msg.sender][ticker] = balance[msg.sender][ticker] - filled;\r\n             balance[msg.sender][\"ETH\"] = balance[msg.sender][\"ETH\"] + cost;\r\n            // send tokens from seller to buy\r\n            // send tokens from seller to buyer\r\n\r\n            balance[orders[i].trader][ticker] = balance[orders[i].trader][ticker] + filled;\r\n            balance[orders[i].trader][\"ETH\"] = balance[orders[i].trader][\"ETH\"] -  cost;\r\n\r\n          }\r\n        // verify that the buyer has enough eth to cover the trade\r\n    }\r\n  \r\n//loop through the orderbook and remove 100% orderfilled\r\n     while(orders.length > 0 && orders[0].filled == orders[0].amount) {\r\n    //remove the top element in the orders array by overwriting every element with the next element in the order list\r\n    for (uint256 i = 0; i < orders.length - 1; i++) {\r\n        orders[i] = orders[i + 1];\r\n    }\r\n    orders.pop();\r\n}\r\n}\r\n}",
  "sourcePath": "C:/Users/HP/Desktop/DEX/contracts/DEX.sol",
  "compiler": {
    "name": "solc",
    "version": "0.8.6+commit.11564f7e.Emscripten.clang"
  },
  "schemaVersion": "3.4.1",
  "updatedAt": "2021-07-01T13:52:53.609Z",
  "networkType": "ethereum",
  "devdoc": {
    "kind": "dev",
    "methods": {
      "owner()": {
        "details": "Returns the address of the current owner."
      },
      "renounceOwnership()": {
        "details": "Leaves the contract without owner. It will not be possible to call `onlyOwner` functions anymore. Can only be called by the current owner. NOTE: Renouncing ownership will leave the contract without an owner, thereby removing any functionality that is only available to the owner."
      },
      "transferOwnership(address)": {
        "details": "Transfers ownership of the contract to a new account (`newOwner`). Can only be called by the current owner."
      }
    },
    "version": 1
  },
  "userdoc": {
    "kind": "user",
    "methods": {},
    "version": 1
  }
}