{
  "contractName": "Dex",
  "abi": [
    {
      "anonymous": false,
      "inputs": [
        {
          "indexed": true,
          "internalType": "address",
          "name": "previousOwner",
          "type": "address"
        },
        {
          "indexed": true,
          "internalType": "address",
          "name": "newOwner",
          "type": "address"
        }
      ],
      "name": "OwnershipTransferred",
      "type": "event"
    },
    {
      "inputs": [
        {
          "internalType": "bytes32",
          "name": "ticker",
          "type": "bytes32"
        },
        {
          "internalType": "address",
          "name": "tokenAddress",
          "type": "address"
        }
      ],
      "name": "addToken",
      "outputs": [],
      "stateMutability": "nonpayable",
      "type": "function"
    },
    {
      "inputs": [
        {
          "internalType": "address",
          "name": "",
          "type": "address"
        },
        {
          "internalType": "bytes32",
          "name": "",
          "type": "bytes32"
        }
      ],
      "name": "balance",
      "outputs": [
        {
          "internalType": "uint256",
          "name": "",
          "type": "uint256"
        }
      ],
      "stateMutability": "view",
      "type": "function",
      "constant": true
    },
    {
      "inputs": [
        {
          "internalType": "uint256",
          "name": "amount",
          "type": "uint256"
        },
        {
          "internalType": "bytes32",
          "name": "ticker",
          "type": "bytes32"
        }
      ],
      "name": "deposit",
      "outputs": [],
      "stateMutability": "nonpayable",
      "type": "function"
    },
    {
      "inputs": [],
      "name": "nextOrderId",
      "outputs": [
        {
          "internalType": "uint256",
          "name": "",
          "type": "uint256"
        }
      ],
      "stateMutability": "view",
      "type": "function",
      "constant": true
    },
    {
      "inputs": [
        {
          "internalType": "bytes32",
          "name": "",
          "type": "bytes32"
        },
        {
          "internalType": "uint256",
          "name": "",
          "type": "uint256"
        },
        {
          "internalType": "uint256",
          "name": "",
          "type": "uint256"
        }
      ],
      "name": "orderBook",
      "outputs": [
        {
          "internalType": "uint256",
          "name": "id",
          "type": "uint256"
        },
        {
          "internalType": "address",
          "name": "trader",
          "type": "address"
        },
        {
          "internalType": "enum Dex.Side",
          "name": "side",
          "type": "uint8"
        },
        {
          "internalType": "bytes32",
          "name": "ticker",
          "type": "bytes32"
        },
        {
          "internalType": "uint256",
          "name": "amount",
          "type": "uint256"
        },
        {
          "internalType": "uint256",
          "name": "price",
          "type": "uint256"
        },
        {
          "internalType": "uint256",
          "name": "filled",
          "type": "uint256"
        }
      ],
      "stateMutability": "view",
      "type": "function",
      "constant": true
    },
    {
      "inputs": [],
      "name": "owner",
      "outputs": [
        {
          "internalType": "address",
          "name": "",
          "type": "address"
        }
      ],
      "stateMutability": "view",
      "type": "function",
      "constant": true
    },
    {
      "inputs": [],
      "name": "renounceOwnership",
      "outputs": [],
      "stateMutability": "nonpayable",
      "type": "function"
    },
    {
      "inputs": [
        {
          "internalType": "uint256",
          "name": "",
          "type": "uint256"
        }
      ],
      "name": "tokenList",
      "outputs": [
        {
          "internalType": "bytes32",
          "name": "",
          "type": "bytes32"
        }
      ],
      "stateMutability": "view",
      "type": "function",
      "constant": true
    },
    {
      "inputs": [
        {
          "internalType": "bytes32",
          "name": "",
          "type": "bytes32"
        }
      ],
      "name": "tokenMapping",
      "outputs": [
        {
          "internalType": "bytes32",
          "name": "ticker",
          "type": "bytes32"
        },
        {
          "internalType": "address",
          "name": "tokenAddress",
          "type": "address"
        }
      ],
      "stateMutability": "view",
      "type": "function",
      "constant": true
    },
    {
      "inputs": [
        {
          "internalType": "address",
          "name": "newOwner",
          "type": "address"
        }
      ],
      "name": "transferOwnership",
      "outputs": [],
      "stateMutability": "nonpayable",
      "type": "function"
    },
    {
      "inputs": [
        {
          "internalType": "uint256",
          "name": "amount",
          "type": "uint256"
        },
        {
          "internalType": "bytes32",
          "name": "ticker",
          "type": "bytes32"
        }
      ],
      "name": "withdraw",
      "outputs": [],
      "stateMutability": "nonpayable",
      "type": "function"
    },
    {
      "inputs": [
        {
          "internalType": "bytes32",
          "name": "ticker",
          "type": "bytes32"
        },
        {
          "internalType": "enum Dex.Side",
          "name": "side",
          "type": "uint8"
        }
      ],
      "name": "getOrderBook",
      "outputs": [
        {
          "components": [
            {
              "internalType": "uint256",
              "name": "id",
              "type": "uint256"
            },
            {
              "internalType": "address",
              "name": "trader",
              "type": "address"
            },
            {
              "internalType": "enum Dex.Side",
              "name": "side",
              "type": "uint8"
            },
            {
              "internalType": "bytes32",
              "name": "ticker",
              "type": "bytes32"
            },
            {
              "internalType": "uint256",
              "name": "amount",
              "type": "uint256"
            },
            {
              "internalType": "uint256",
              "name": "price",
              "type": "uint256"
            },
            {
              "internalType": "uint256",
              "name": "filled",
              "type": "uint256"
            }
          ],
          "internalType": "struct Dex.Order[]",
          "name": "",
          "type": "tuple[]"
        }
      ],
      "stateMutability": "view",
      "type": "function",
      "constant": true
    },
    {
      "inputs": [
        {
          "internalType": "enum Dex.Side",
          "name": "side",
          "type": "uint8"
        },
        {
          "internalType": "bytes32",
          "name": "ticker",
          "type": "bytes32"
        },
        {
          "internalType": "uint256",
          "name": "amount",
          "type": "uint256"
        },
        {
          "internalType": "uint256",
          "name": "price",
          "type": "uint256"
        }
      ],
      "name": "createLimitOrder",
      "outputs": [],
      "stateMutability": "nonpayable",
      "type": "function"
    },
    {
      "inputs": [
        {
          "internalType": "enum Dex.Side",
          "name": "side",
          "type": "uint8"
        },
        {
          "internalType": "bytes32",
          "name": "ticker",
          "type": "bytes32"
        },
        {
          "internalType": "uint256",
          "name": "amount",
          "type": "uint256"
        }
      ],
      "name": "createMarketOrder",
      "outputs": [],
      "stateMutability": "nonpayable",
      "type": "function"
    }
  ],
  "bytecode": "0x6080604052600060045534801561001557600080fd5b5060006100266100c960201b60201c565b9050806000806101000a81548173ffffffffffffffffffffffffffffffffffffffff021916908373ffffffffffffffffffffffffffffffffffffffff1602179055508073ffffffffffffffffffffffffffffffffffffffff16600073ffffffffffffffffffffffffffffffffffffffff167f8be0079c531659141344cd1fd0a4f28419497f9722a3daafe3b4186f6b6457e060405160405180910390a3506100d1565b600033905090565b61302f80620000e16000396000f3fe608060405234801561001057600080fd5b50600436106100ea5760003560e01c806399ec2f1c1161008c578063ba58ea6811610066578063ba58ea681461023c578063c9630cb01461026c578063f2fde38b14610288578063feb8be82146102a4576100ea565b806399ec2f1c146101d45780639ead7222146101f0578063a8d2021a14610220576100ea565b80636f3b62f9116100c85780636f3b62f914610174578063715018a6146101905780638da5cb5b1461019a5780639776aacf146101b8576100ea565b80630bb431b6146100ef5780632a58b33014610125578063667cb4ba14610143575b600080fd5b610109600480360381019061010491906126a0565b6102d4565b60405161011c9796959493929190612b67565b60405180910390f35b61012d61036d565b60405161013a9190612b4c565b60405180910390f35b61015d600480360381019061015891906125f3565b610373565b60405161016b929190612aa3565b60405180910390f35b61018e60048036038101906101899190612746565b6103b7565b005b610198610e17565b005b6101a2610f51565b6040516101af9190612a22565b60405180910390f35b6101d260048036038101906101cd9190612620565b610f7a565b005b6101ee60048036038101906101e991906126f3565b6110b5565b005b61020a600480360381019061020591906127ad565b611f1e565b6040516102179190612a88565b60405180910390f35b61023a600480360381019061023591906127da565b611f42565b005b61025660048036038101906102519190612660565b6121bd565b6040516102639190612a66565b60405180910390f35b610286600480360381019061028191906127da565b612316565b005b6102a2600480360381019061029d9190612559565b61231a565b005b6102be60048036038101906102b99190612586565b6124c3565b6040516102cb9190612b4c565b60405180910390f35b600560205282600052604060002060205281600052604060002081815481106102fc57600080fd5b906000526020600020906006020160009250925050508060000154908060010160009054906101000a900473ffffffffffffffffffffffffffffffffffffffff16908060010160149054906101000a900460ff16908060020154908060030154908060040154908060050154905087565b60045481565b60016020528060005260406000206000915090508060000154908060010160009054906101000a900473ffffffffffffffffffffffffffffffffffffffff16905082565b600060018111156103cb576103ca612e1d565b5b8460018111156103de576103dd612e1d565b5b14156104715780826103f09190612c76565b600360003373ffffffffffffffffffffffffffffffffffffffff1673ffffffffffffffffffffffffffffffffffffffff16815260200190815260200160002060007f4554480000000000000000000000000000000000000000000000000000000000815260200190815260200160002054101561046c57600080fd5b61051c565b60018081111561048457610483612e1d565b5b84600181111561049757610496612e1d565b5b141561051b5781600360003373ffffffffffffffffffffffffffffffffffffffff1673ffffffffffffffffffffffffffffffffffffffff16815260200190815260200160002060007f7469636b65720000000000000000000000000000000000000000000000000000815260200190815260200160002054101561051a57600080fd5b5b5b600060056000858152602001908152602001600020600086600181111561054657610545612e1d565b5b81526020019081526020016000209050806040518060e0016040528060045481526020013373ffffffffffffffffffffffffffffffffffffffff16815260200187600181111561059957610598612e1d565b5b8152602001868152602001858152602001848152602001600081525090806001815401808255809150506001900390600052602060002090600602016000909190919091506000820151816000015560208201518160010160006101000a81548173ffffffffffffffffffffffffffffffffffffffff021916908373ffffffffffffffffffffffffffffffffffffffff16021790555060408201518160010160146101000a81548160ff0219169083600181111561065a57610659612e1d565b5b0217905550606082015181600201556080820151816003015560a0820151816004015560c08201518160050155505060008082805490501161069d5760006106af565b600182805490506106ae9190612cd0565b5b9050600060018111156106c5576106c4612e1d565b5b8660018111156106d8576106d7612e1d565b5b1415610a56575b6000811115610a51578181815481106106fb576106fa612e7b565b5b9060005260206000209060060201600401548260018361071b9190612cd0565b8154811061072c5761072b612e7b565b5b906000526020600020906006020160040154111561074957610a51565b6000826001836107599190612cd0565b8154811061076a57610769612e7b565b5b90600052602060002090600602016040518060e0016040529081600082015481526020016001820160009054906101000a900473ffffffffffffffffffffffffffffffffffffffff1673ffffffffffffffffffffffffffffffffffffffff1673ffffffffffffffffffffffffffffffffffffffff1681526020016001820160149054906101000a900460ff16600181111561080857610807612e1d565b5b600181111561081a57610819612e1d565b5b8152602001600282015481526020016003820154815260200160048201548152602001600582015481525050905082828154811061085b5761085a612e7b565b5b9060005260206000209060060201836001846108779190612cd0565b8154811061088857610887612e7b565b5b9060005260206000209060060201600082015481600001556001820160009054906101000a900473ffffffffffffffffffffffffffffffffffffffff168160010160006101000a81548173ffffffffffffffffffffffffffffffffffffffff021916908373ffffffffffffffffffffffffffffffffffffffff1602179055506001820160149054906101000a900460ff168160010160146101000a81548160ff0219169083600181111561093f5761093e612e1d565b5b0217905550600282015481600201556003820154816003015560048201548160040155600582015481600501559050508083838154811061098357610982612e7b565b5b90600052602060002090600602016000820151816000015560208201518160010160006101000a81548173ffffffffffffffffffffffffffffffffffffffff021916908373ffffffffffffffffffffffffffffffffffffffff16021790555060408201518160010160146101000a81548160ff02191690836001811115610a0d57610a0c612e1d565b5b0217905550606082015181600201556080820151816003015560a0820151816004015560c082015181600501559050508180610a4890612d7b565b925050506106df565b610df7565b600180811115610a6957610a68612e1d565b5b866001811115610a7c57610a7b612e1d565b5b1415610df6575b6000811115610df557818181548110610a9f57610a9e612e7b565b5b90600052602060002090600602016004015482600183610abf9190612cd0565b81548110610ad057610acf612e7b565b5b9060005260206000209060060201600401541015610aed57610df5565b600082600183610afd9190612cd0565b81548110610b0e57610b0d612e7b565b5b90600052602060002090600602016040518060e0016040529081600082015481526020016001820160009054906101000a900473ffffffffffffffffffffffffffffffffffffffff1673ffffffffffffffffffffffffffffffffffffffff1673ffffffffffffffffffffffffffffffffffffffff1681526020016001820160149054906101000a900460ff166001811115610bac57610bab612e1d565b5b6001811115610bbe57610bbd612e1d565b5b81526020016002820154815260200160038201548152602001600482015481526020016005820154815250509050828281548110610bff57610bfe612e7b565b5b906000526020600020906006020183600184610c1b9190612cd0565b81548110610c2c57610c2b612e7b565b5b9060005260206000209060060201600082015481600001556001820160009054906101000a900473ffffffffffffffffffffffffffffffffffffffff168160010160006101000a81548173ffffffffffffffffffffffffffffffffffffffff021916908373ffffffffffffffffffffffffffffffffffffffff1602179055506001820160149054906101000a900460ff168160010160146101000a81548160ff02191690836001811115610ce357610ce2612e1d565b5b02179055506002820154816002015560038201548160030155600482015481600401556005820154816005015590505080838381548110610d2757610d26612e7b565b5b90600052602060002090600602016000820151816000015560208201518160010160006101000a81548173ffffffffffffffffffffffffffffffffffffffff021916908373ffffffffffffffffffffffffffffffffffffffff16021790555060408201518160010160146101000a81548160ff02191690836001811115610db157610db0612e1d565b5b0217905550606082015181600201556080820151816003015560a0820151816004015560c082015181600501559050508180610dec90612d7b565b92505050610a83565b5b5b60046000815480929190610e0a90612da5565b9190505550505050505050565b610e1f6124e8565b73ffffffffffffffffffffffffffffffffffffffff16610e3d610f51565b73ffffffffffffffffffffffffffffffffffffffff1614610e93576040517f08c379a0000000000000000000000000000000000000000000000000000000008152600401610e8a90612b0c565b60405180910390fd5b600073ffffffffffffffffffffffffffffffffffffffff1660008054906101000a900473ffffffffffffffffffffffffffffffffffffffff1673ffffffffffffffffffffffffffffffffffffffff167f8be0079c531659141344cd1fd0a4f28419497f9722a3daafe3b4186f6b6457e060405160405180910390a360008060006101000a81548173ffffffffffffffffffffffffffffffffffffffff021916908373ffffffffffffffffffffffffffffffffffffffff160217905550565b60008060009054906101000a900473ffffffffffffffffffffffffffffffffffffffff16905090565b610f826124e8565b73ffffffffffffffffffffffffffffffffffffffff16610fa0610f51565b73ffffffffffffffffffffffffffffffffffffffff1614610ff6576040517f08c379a0000000000000000000000000000000000000000000000000000000008152600401610fed90612b0c565b60405180910390fd5b60405180604001604052808381526020018273ffffffffffffffffffffffffffffffffffffffff16815250600160008481526020019081526020016000206000820151816000015560208201518160010160006101000a81548173ffffffffffffffffffffffffffffffffffffffff021916908373ffffffffffffffffffffffffffffffffffffffff16021790555090505060028290806001815401808255809150506001900390600052602060002001600090919091909150555050565b6001808111156110c8576110c7612e1d565b5b8360018111156110db576110da612e1d565b5b14156111755780600360003373ffffffffffffffffffffffffffffffffffffffff1673ffffffffffffffffffffffffffffffffffffffff1681526020019081526020016000206000848152602001908152602001600020541015611174576040517f08c379a000000000000000000000000000000000000000000000000000000000815260040161116b90612b2c565b60405180910390fd5b5b600080600181111561118a57611189612e1d565b5b84600181111561119d5761119c612e1d565b5b14156111ac57600190506111b1565b600090505b600060056000858152602001908152602001600020600083815260200190815260200160002090506000805b8280549050811080156111ef57508482105b15611cca57600082866112029190612cd0565b9050600084838154811061121957611218612e7b565b5b90600052602060002090600602016005015485848154811061123e5761123d612e7b565b5b90600052602060002090600602016003015461125a9190612cd0565b905060008282111561126e57829050611272565b8190505b808561127e9190612c20565b94508086858154811061129457611293612e7b565b5b9060005260206000209060060201600501546112b09190612c20565b8685815481106112c3576112c2612e7b565b5b90600052602060002090600602016005018190555060008685815481106112ed576112ec612e7b565b5b9060005260206000209060060201600401548261130a9190612c76565b9050600060018111156113205761131f612e1d565b5b8b600181111561133357611332612e1d565b5b14156118365786858154811061134c5761134b612e7b565b5b906000526020600020906006020160040154826113699190612c76565b600360003373ffffffffffffffffffffffffffffffffffffffff1673ffffffffffffffffffffffffffffffffffffffff16815260200190815260200160002060007f455448000000000000000000000000000000000000000000000000000000000081526020019081526020016000205410156113e557600080fd5b81600360003373ffffffffffffffffffffffffffffffffffffffff1673ffffffffffffffffffffffffffffffffffffffff16815260200190815260200160002060008c8152602001908152602001600020546114419190612c20565b600360003373ffffffffffffffffffffffffffffffffffffffff1673ffffffffffffffffffffffffffffffffffffffff16815260200190815260200160002060008c81526020019081526020016000208190555080600360003373ffffffffffffffffffffffffffffffffffffffff1673ffffffffffffffffffffffffffffffffffffffff16815260200190815260200160002060007f45544800000000000000000000000000000000000000000000000000000000008152602001908152602001600020546115119190612cd0565b600360003373ffffffffffffffffffffffffffffffffffffffff1673ffffffffffffffffffffffffffffffffffffffff16815260200190815260200160002060007f4554480000000000000000000000000000000000000000000000000000000000815260200190815260200160002081905550816003600089888154811061159d5761159c612e7b565b5b906000526020600020906006020160010160009054906101000a900473ffffffffffffffffffffffffffffffffffffffff1673ffffffffffffffffffffffffffffffffffffffff1673ffffffffffffffffffffffffffffffffffffffff16815260200190815260200160002060008c8152602001908152602001600020546116259190612cd0565b6003600089888154811061163c5761163b612e7b565b5b906000526020600020906006020160010160009054906101000a900473ffffffffffffffffffffffffffffffffffffffff1673ffffffffffffffffffffffffffffffffffffffff1673ffffffffffffffffffffffffffffffffffffffff16815260200190815260200160002060008c81526020019081526020016000208190555080600360008988815481106116d5576116d4612e7b565b5b906000526020600020906006020160010160009054906101000a900473ffffffffffffffffffffffffffffffffffffffff1673ffffffffffffffffffffffffffffffffffffffff1673ffffffffffffffffffffffffffffffffffffffff16815260200190815260200160002060007f455448000000000000000000000000000000000000000000000000000000000081526020019081526020016000205461177d9190612c20565b6003600089888154811061179457611793612e7b565b5b906000526020600020906006020160010160009054906101000a900473ffffffffffffffffffffffffffffffffffffffff1673ffffffffffffffffffffffffffffffffffffffff1673ffffffffffffffffffffffffffffffffffffffff16815260200190815260200160002060007f45544800000000000000000000000000000000000000000000000000000000008152602001908152602001600020819055505b60018081111561184957611848612e1d565b5b8b600181111561185c5761185b612e1d565b5b1415611cb35781600360003373ffffffffffffffffffffffffffffffffffffffff1673ffffffffffffffffffffffffffffffffffffffff16815260200190815260200160002060008c8152602001908152602001600020546118be9190612cd0565b600360003373ffffffffffffffffffffffffffffffffffffffff1673ffffffffffffffffffffffffffffffffffffffff16815260200190815260200160002060008c81526020019081526020016000208190555080600360003373ffffffffffffffffffffffffffffffffffffffff1673ffffffffffffffffffffffffffffffffffffffff16815260200190815260200160002060007f455448000000000000000000000000000000000000000000000000000000000081526020019081526020016000205461198e9190612c20565b600360003373ffffffffffffffffffffffffffffffffffffffff1673ffffffffffffffffffffffffffffffffffffffff16815260200190815260200160002060007f45544800000000000000000000000000000000000000000000000000000000008152602001908152602001600020819055508160036000898881548110611a1a57611a19612e7b565b5b906000526020600020906006020160010160009054906101000a900473ffffffffffffffffffffffffffffffffffffffff1673ffffffffffffffffffffffffffffffffffffffff1673ffffffffffffffffffffffffffffffffffffffff16815260200190815260200160002060008c815260200190815260200160002054611aa29190612c20565b60036000898881548110611ab957611ab8612e7b565b5b906000526020600020906006020160010160009054906101000a900473ffffffffffffffffffffffffffffffffffffffff1673ffffffffffffffffffffffffffffffffffffffff1673ffffffffffffffffffffffffffffffffffffffff16815260200190815260200160002060008c8152602001908152602001600020819055508060036000898881548110611b5257611b51612e7b565b5b906000526020600020906006020160010160009054906101000a900473ffffffffffffffffffffffffffffffffffffffff1673ffffffffffffffffffffffffffffffffffffffff1673ffffffffffffffffffffffffffffffffffffffff16815260200190815260200160002060007f4554480000000000000000000000000000000000000000000000000000000000815260200190815260200160002054611bfa9190612cd0565b60036000898881548110611c1157611c10612e7b565b5b906000526020600020906006020160010160009054906101000a900473ffffffffffffffffffffffffffffffffffffffff1673ffffffffffffffffffffffffffffffffffffffff1673ffffffffffffffffffffffffffffffffffffffff16815260200190815260200160002060007f45544800000000000000000000000000000000000000000000000000000000008152602001908152602001600020819055505b505050508080611cc290612da5565b9150506111dd565b505b60008280549050118015611d29575081600081548110611cef57611cee612e7b565b5b90600052602060002090600602016003015482600081548110611d1557611d14612e7b565b5b906000526020600020906006020160050154145b15611f165760005b60018380549050611d429190612cd0565b811015611e835782600182611d579190612c20565b81548110611d6857611d67612e7b565b5b9060005260206000209060060201838281548110611d8957611d88612e7b565b5b9060005260206000209060060201600082015481600001556001820160009054906101000a900473ffffffffffffffffffffffffffffffffffffffff168160010160006101000a81548173ffffffffffffffffffffffffffffffffffffffff021916908373ffffffffffffffffffffffffffffffffffffffff1602179055506001820160149054906101000a900460ff168160010160146101000a81548160ff02191690836001811115611e4057611e3f612e1d565b5b0217905550600282015481600201556003820154816003015560048201548160040155600582015481600501559050508080611e7b90612da5565b915050611d31565b5081805480611e9557611e94612e4c565b5b60019003818190600052602060002090600602016000808201600090556001820160006101000a81549073ffffffffffffffffffffffffffffffffffffffff02191690556001820160146101000a81549060ff0219169055600282016000905560038201600090556004820160009055600582016000905550509055611ccc565b505050505050565b60028181548110611f2e57600080fd5b906000526020600020016000915090505481565b600073ffffffffffffffffffffffffffffffffffffffff166001600083815260200190815260200160002060010160009054906101000a900473ffffffffffffffffffffffffffffffffffffffff1673ffffffffffffffffffffffffffffffffffffffff161415611fb257600080fd5b81600360003373ffffffffffffffffffffffffffffffffffffffff1673ffffffffffffffffffffffffffffffffffffffff1681526020019081526020016000206000838152602001908152602001600020541015612045576040517f08c379a000000000000000000000000000000000000000000000000000000000815260040161203c90612aec565b60405180910390fd5b81600360003373ffffffffffffffffffffffffffffffffffffffff1673ffffffffffffffffffffffffffffffffffffffff1681526020019081526020016000206000838152602001908152602001600020546120a19190612cd0565b600360003373ffffffffffffffffffffffffffffffffffffffff1673ffffffffffffffffffffffffffffffffffffffff1681526020019081526020016000206000838152602001908152602001600020819055506001600082815260200190815260200160002060010160009054906101000a900473ffffffffffffffffffffffffffffffffffffffff1673ffffffffffffffffffffffffffffffffffffffff1663a9059cbb33846040518363ffffffff1660e01b8152600401612166929190612a3d565b602060405180830381600087803b15801561218057600080fd5b505af1158015612194573d6000803e3d6000fd5b505050506040513d601f19601f820116820180604052508101906121b891906125c6565b505050565b60606005600084815260200190815260200160002060008360018111156121e7576121e6612e1d565b5b8152602001908152602001600020805480602002602001604051908101604052809291908181526020016000905b8282101561230a57838290600052602060002090600602016040518060e0016040529081600082015481526020016001820160009054906101000a900473ffffffffffffffffffffffffffffffffffffffff1673ffffffffffffffffffffffffffffffffffffffff1673ffffffffffffffffffffffffffffffffffffffff1681526020016001820160149054906101000a900460ff1660018111156122bd576122bc612e1d565b5b60018111156122cf576122ce612e1d565b5b815260200160028201548152602001600382015481526020016004820154815260200160058201548152505081526020019060010190612215565b50505050905092915050565b5050565b6123226124e8565b73ffffffffffffffffffffffffffffffffffffffff16612340610f51565b73ffffffffffffffffffffffffffffffffffffffff1614612396576040517f08c379a000000000000000000000000000000000000000000000000000000000815260040161238d90612b0c565b60405180910390fd5b600073ffffffffffffffffffffffffffffffffffffffff168173ffffffffffffffffffffffffffffffffffffffff161415612406576040517f08c379a00000000000000000000000000000000000000000000000000000000081526004016123fd90612acc565b60405180910390fd5b8073ffffffffffffffffffffffffffffffffffffffff1660008054906101000a900473ffffffffffffffffffffffffffffffffffffffff1673ffffffffffffffffffffffffffffffffffffffff167f8be0079c531659141344cd1fd0a4f28419497f9722a3daafe3b4186f6b6457e060405160405180910390a3806000806101000a81548173ffffffffffffffffffffffffffffffffffffffff021916908373ffffffffffffffffffffffffffffffffffffffff16021790555050565b6003602052816000526040600020602052806000526040600020600091509150505481565b600033905090565b6000813590506124ff81612f8d565b92915050565b60008151905061251481612fa4565b92915050565b60008135905061252981612fbb565b92915050565b60008135905061253e81612fd2565b92915050565b60008135905061255381612fe2565b92915050565b60006020828403121561256f5761256e612eaa565b5b600061257d848285016124f0565b91505092915050565b6000806040838503121561259d5761259c612eaa565b5b60006125ab858286016124f0565b92505060206125bc8582860161251a565b9150509250929050565b6000602082840312156125dc576125db612eaa565b5b60006125ea84828501612505565b91505092915050565b60006020828403121561260957612608612eaa565b5b60006126178482850161251a565b91505092915050565b6000806040838503121561263757612636612eaa565b5b60006126458582860161251a565b9250506020612656858286016124f0565b9150509250929050565b6000806040838503121561267757612676612eaa565b5b60006126858582860161251a565b92505060206126968582860161252f565b9150509250929050565b6000806000606084860312156126b9576126b8612eaa565b5b60006126c78682870161251a565b93505060206126d886828701612544565b92505060406126e986828701612544565b9150509250925092565b60008060006060848603121561270c5761270b612eaa565b5b600061271a8682870161252f565b935050602061272b8682870161251a565b925050604061273c86828701612544565b9150509250925092565b600080600080608085870312156127605761275f612eaa565b5b600061276e8782880161252f565b945050602061277f8782880161251a565b935050604061279087828801612544565b92505060606127a187828801612544565b91505092959194509250565b6000602082840312156127c3576127c2612eaa565b5b60006127d184828501612544565b91505092915050565b600080604083850312156127f1576127f0612eaa565b5b60006127ff85828601612544565b92505060206128108582860161251a565b9150509250929050565b60006128268383612976565b60e08301905092915050565b61283b81612d04565b82525050565b61284a81612d04565b82525050565b600061285b82612be6565b6128658185612bfe565b935061287083612bd6565b8060005b838110156128a1578151612888888261281a565b975061289383612bf1565b925050600181019050612874565b5085935050505092915050565b6128b781612d22565b82525050565b6128c681612d22565b82525050565b6128d581612d69565b82525050565b6128e481612d69565b82525050565b60006128f7602683612c0f565b915061290282612eaf565b604082019050919050565b600061291a601083612c0f565b915061292582612efe565b602082019050919050565b600061293d602083612c0f565b915061294882612f27565b602082019050919050565b6000612960601483612c0f565b915061296b82612f50565b602082019050919050565b60e08201600082015161298c6000850182612a04565b50602082015161299f6020850182612832565b5060408201516129b260408501826128cc565b5060608201516129c560608501826128ae565b5060808201516129d86080850182612a04565b5060a08201516129eb60a0850182612a04565b5060c08201516129fe60c0850182612a04565b50505050565b612a0d81612d5f565b82525050565b612a1c81612d5f565b82525050565b6000602082019050612a376000830184612841565b92915050565b6000604082019050612a526000830185612841565b612a5f6020830184612a13565b9392505050565b60006020820190508181036000830152612a808184612850565b905092915050565b6000602082019050612a9d60008301846128bd565b92915050565b6000604082019050612ab860008301856128bd565b612ac56020830184612841565b9392505050565b60006020820190508181036000830152612ae5816128ea565b9050919050565b60006020820190508181036000830152612b058161290d565b9050919050565b60006020820190508181036000830152612b2581612930565b9050919050565b60006020820190508181036000830152612b4581612953565b9050919050565b6000602082019050612b616000830184612a13565b92915050565b600060e082019050612b7c600083018a612a13565b612b896020830189612841565b612b9660408301886128db565b612ba360608301876128bd565b612bb06080830186612a13565b612bbd60a0830185612a13565b612bca60c0830184612a13565b98975050505050505050565b6000819050602082019050919050565b600081519050919050565b6000602082019050919050565b600082825260208201905092915050565b600082825260208201905092915050565b6000612c2b82612d5f565b9150612c3683612d5f565b9250827fffffffffffffffffffffffffffffffffffffffffffffffffffffffffffffffff03821115612c6b57612c6a612dee565b5b828201905092915050565b6000612c8182612d5f565b9150612c8c83612d5f565b9250817fffffffffffffffffffffffffffffffffffffffffffffffffffffffffffffffff0483118215151615612cc557612cc4612dee565b5b828202905092915050565b6000612cdb82612d5f565b9150612ce683612d5f565b925082821015612cf957612cf8612dee565b5b828203905092915050565b6000612d0f82612d3f565b9050919050565b60008115159050919050565b6000819050919050565b6000819050612d3a82612f79565b919050565b600073ffffffffffffffffffffffffffffffffffffffff82169050919050565b6000819050919050565b6000612d7482612d2c565b9050919050565b6000612d8682612d5f565b91506000821415612d9a57612d99612dee565b5b600182039050919050565b6000612db082612d5f565b91507fffffffffffffffffffffffffffffffffffffffffffffffffffffffffffffffff821415612de357612de2612dee565b5b600182019050919050565b7f4e487b7100000000000000000000000000000000000000000000000000000000600052601160045260246000fd5b7f4e487b7100000000000000000000000000000000000000000000000000000000600052602160045260246000fd5b7f4e487b7100000000000000000000000000000000000000000000000000000000600052603160045260246000fd5b7f4e487b7100000000000000000000000000000000000000000000000000000000600052603260045260246000fd5b600080fd5b7f4f776e61626c653a206e6577206f776e657220697320746865207a65726f206160008201527f6464726573730000000000000000000000000000000000000000000000000000602082015250565b7f42616c616e636520457863656564656400000000000000000000000000000000600082015250565b7f4f776e61626c653a2063616c6c6572206973206e6f7420746865206f776e6572600082015250565b7f696e73756666696369656e742062616c616e6365000000000000000000000000600082015250565b60028110612f8a57612f89612e1d565b5b50565b612f9681612d04565b8114612fa157600080fd5b50565b612fad81612d16565b8114612fb857600080fd5b50565b612fc481612d22565b8114612fcf57600080fd5b50565b60028110612fdf57600080fd5b50565b612feb81612d5f565b8114612ff657600080fd5b5056fea2646970667358221220ff209c9cd46a6a8d69f2cc6f74670fd12347f2d3c5149f732b9225b1b97f562d64736f6c63430008060033",
  "immutableReferences": {},
  "source": "//SPDX-License: MIT\r\npragma solidity  ^0.8.0;\r\npragma experimental ABIEncoderV2;\r\nimport \"./DexWallet.sol\";\r\n\r\n\r\ncontract Dex is DexWallet {\r\n\r\n//using SafeMath for uint256;\r\n\r\n\r\nenum Side{ BUY, SELL} \r\n//mapping(bytes32 => mapping(uint => order[]));\r\nstruct Order {\r\n    uint id;\r\n    address trader;\r\n    Side side;\r\n    bytes32 ticker;\r\n    uint amount;\r\n    uint price;\r\n    uint filled;\r\n}\r\n//Side side == 0;\r\nuint public nextOrderId = 0;\r\n\r\nmapping(bytes32 => mapping(uint => Order[])) public orderBook;\r\n\r\nfunction getOrderBook(bytes32 ticker, Side side) view public returns(Order[] memory) {\r\n    return orderBook[ticker][uint(side)];\r\n} \r\nfunction createLimitOrder( Side side, bytes32 ticker, uint amount, uint price) public {\r\nif(side == Side.BUY) {\r\n    require(balance[msg.sender][\"ETH\"] >= amount * price );\r\n}\r\nelse if(side == Side.SELL) {\r\n    require(balance[msg.sender][\"ticker\"] >= amount);\r\n}\r\nOrder[] storage orders = orderBook[ticker][uint(side)];\r\n orders.push(Order(nextOrderId, msg.sender, side, ticker, amount, price, 0));\r\n\r\n    //Bubble sort\r\n   uint i = orders.length > 0 ? orders.length -1 : 0;\r\n   \r\n    if(side == Side.BUY){\r\n        while(i > 0){\r\n     if(orders[i - 1].price > orders[i].price) {\r\n         break;\r\n     }\r\n     Order memory orderToMove =orders[i - 1];\r\n     orders[i -1] = orders[i];\r\n     orders[i] = orderToMove;\r\n     i--;\r\n        }\r\n    } \r\n    else if(side == Side.SELL){\r\n         while(i > 0){\r\n     if(orders[i - 1].price < orders[i].price) {\r\n         break;\r\n     }\r\n     Order memory orderToMove =orders[i - 1];\r\n     orders[i -1] = orders[i];\r\n     orders[i] = orderToMove;\r\n     i--;\r\n        }\r\n    }\r\n     \r\n     nextOrderId++;\r\n\r\n}\r\n\r\nfunction createMarketOrder( Side side, bytes32 ticker, uint amount) public {\r\n   if(side == Side.SELL){\r\n       require(balance[msg.sender][ticker] >= amount, \"insufficient balance\");\r\n   }\r\n  // require(balances[msg.sender[ticker] >= amount, \"insufficient balance\");\r\n   \r\n    uint orderBookSide;\r\n    if(side == Side.BUY) {\r\n        orderBookSide = 1;\r\n    } \r\n    else{\r\n        orderBookSide = 0;\r\n    }\r\n    Order[] storage orders = orderBook[ticker][orderBookSide];\r\n        // cost storage  cost = orders[i] * price;\r\n    uint totalfilled = 0;\r\n    for (uint256 i = 0; i < orders.length && totalfilled < amount; i++){\r\n        //how much we can fill from order [1]\r\n        uint leftToFilled = amount - totalfilled;\r\n         uint availableToFill = orders[i].amount - orders[i].filled;\r\n         uint filled =0;\r\n         if(availableToFill > leftToFilled) {\r\n             filled = leftToFilled;\r\n         }\r\n         else{\r\n             filled = availableToFill;\r\n         }\r\n              \r\n            totalfilled = totalfilled + filled;\r\n            orders[i].filled = orders[i].filled + filled;\r\n            uint cost = filled * orders[i].price;\r\n            \r\n                   //update totalfilled\r\n         if(side == Side.BUY){\r\n            require(balance[msg.sender][\"ETH\"] >= filled * orders[i].price);\r\n            //transfer eth from buyer to seller\r\n            balance[msg.sender][ticker] = balance[msg.sender][ticker] + filled;\r\n             balance[msg.sender][\"ETH\"] = balance[msg.sender][\"ETH\"] - cost;\r\n            // send tokens from seller to buy\r\n            // send tokens from seller to buyer\r\n\r\n            balance[orders[i].trader][ticker] = balance[orders[i].trader][ticker] - filled;\r\n            balance[orders[i].trader][\"ETH\"] = balance[orders[i].trader][\"ETH\"] + cost;\r\n\r\n         }\r\n        //excute trade and shift balances between buyer and seller\r\n          if(side == Side.SELL){\r\n               balance[msg.sender][ticker] = balance[msg.sender][ticker] - filled;\r\n             balance[msg.sender][\"ETH\"] = balance[msg.sender][\"ETH\"] + cost;\r\n            // send tokens from seller to buy\r\n            // send tokens from seller to buyer\r\n\r\n            balance[orders[i].trader][ticker] = balance[orders[i].trader][ticker] + filled;\r\n            balance[orders[i].trader][\"ETH\"] = balance[orders[i].trader][\"ETH\"] -  cost;\r\n\r\n          }\r\n        // verify that the buyer has enough eth to cover the trade\r\n    }\r\n  \r\n//loop through the orderbook and remove 100% orderfilled\r\n     while(orders.length > 0 && orders[0].filled == orders[0].amount) {\r\n    //remove the top element in the orders array by overwriting every element with the next element in the order list\r\n    for (uint256 i = 0; i < orders.length - 1; i++) {\r\n        orders[i] = orders[i + 1];\r\n    }\r\n    orders.pop();\r\n}\r\n}\r\n}",
  "sourcePath": "C:/Users/HP/Desktop/DEX/contracts/DEX.sol",
  "compiler": {
    "name": "solc",
    "version": "0.8.6+commit.11564f7e.Emscripten.clang"
  },
  "schemaVersion": "3.4.1",
  "updatedAt": "2021-06-25T02:17:22.055Z",
  "networkType": "ethereum",
  "devdoc": {
    "kind": "dev",
    "methods": {
      "owner()": {
        "details": "Returns the address of the current owner."
      },
      "renounceOwnership()": {
        "details": "Leaves the contract without owner. It will not be possible to call `onlyOwner` functions anymore. Can only be called by the current owner. NOTE: Renouncing ownership will leave the contract without an owner, thereby removing any functionality that is only available to the owner."
      },
      "transferOwnership(address)": {
        "details": "Transfers ownership of the contract to a new account (`newOwner`). Can only be called by the current owner."
      }
    },
    "version": 1
  },
  "userdoc": {
    "kind": "user",
    "methods": {},
    "version": 1
  }
}