{
  "contractName": "DexWallet",
  "abi": [
    {
      "anonymous": false,
      "inputs": [
        {
          "indexed": true,
          "internalType": "address",
          "name": "previousOwner",
          "type": "address"
        },
        {
          "indexed": true,
          "internalType": "address",
          "name": "newOwner",
          "type": "address"
        }
      ],
      "name": "OwnershipTransferred",
      "type": "event"
    },
    {
      "inputs": [
        {
          "internalType": "address",
          "name": "",
          "type": "address"
        },
        {
          "internalType": "bytes32",
          "name": "",
          "type": "bytes32"
        }
      ],
      "name": "balance",
      "outputs": [
        {
          "internalType": "uint256",
          "name": "",
          "type": "uint256"
        }
      ],
      "stateMutability": "view",
      "type": "function",
      "constant": true
    },
    {
      "inputs": [],
      "name": "owner",
      "outputs": [
        {
          "internalType": "address",
          "name": "",
          "type": "address"
        }
      ],
      "stateMutability": "view",
      "type": "function",
      "constant": true
    },
    {
      "inputs": [],
      "name": "renounceOwnership",
      "outputs": [],
      "stateMutability": "nonpayable",
      "type": "function"
    },
    {
      "inputs": [
        {
          "internalType": "uint256",
          "name": "",
          "type": "uint256"
        }
      ],
      "name": "tokenList",
      "outputs": [
        {
          "internalType": "bytes32",
          "name": "",
          "type": "bytes32"
        }
      ],
      "stateMutability": "view",
      "type": "function",
      "constant": true
    },
    {
      "inputs": [
        {
          "internalType": "bytes32",
          "name": "",
          "type": "bytes32"
        }
      ],
      "name": "tokenMapping",
      "outputs": [
        {
          "internalType": "bytes32",
          "name": "ticker",
          "type": "bytes32"
        },
        {
          "internalType": "address",
          "name": "tokenAddress",
          "type": "address"
        }
      ],
      "stateMutability": "view",
      "type": "function",
      "constant": true
    },
    {
      "inputs": [
        {
          "internalType": "address",
          "name": "newOwner",
          "type": "address"
        }
      ],
      "name": "transferOwnership",
      "outputs": [],
      "stateMutability": "nonpayable",
      "type": "function"
    },
    {
      "inputs": [
        {
          "internalType": "bytes32",
          "name": "ticker",
          "type": "bytes32"
        },
        {
          "internalType": "address",
          "name": "tokenAddress",
          "type": "address"
        }
      ],
      "name": "addToken",
      "outputs": [],
      "stateMutability": "nonpayable",
      "type": "function"
    },
    {
      "inputs": [
        {
          "internalType": "uint256",
          "name": "amount",
          "type": "uint256"
        },
        {
          "internalType": "bytes32",
          "name": "ticker",
          "type": "bytes32"
        }
      ],
      "name": "deposit",
      "outputs": [],
      "stateMutability": "nonpayable",
      "type": "function"
    },
    {
      "inputs": [
        {
          "internalType": "uint256",
          "name": "amount",
          "type": "uint256"
        },
        {
          "internalType": "bytes32",
          "name": "ticker",
          "type": "bytes32"
        }
      ],
      "name": "withdraw",
      "outputs": [],
      "stateMutability": "nonpayable",
      "type": "function"
    }
  ],
  "bytecode": "0x608060405234801561001057600080fd5b5060006100216100c460201b60201c565b9050806000806101000a81548173ffffffffffffffffffffffffffffffffffffffff021916908373ffffffffffffffffffffffffffffffffffffffff1602179055508073ffffffffffffffffffffffffffffffffffffffff16600073ffffffffffffffffffffffffffffffffffffffff167f8be0079c531659141344cd1fd0a4f28419497f9722a3daafe3b4186f6b6457e060405160405180910390a3506100cc565b600033905090565b610e36806100db6000396000f3fe608060405234801561001057600080fd5b50600436106100935760003560e01c80639ead7222116100665780639ead72221461010d578063a8d2021a1461013d578063c9630cb014610159578063f2fde38b14610175578063feb8be821461019157610093565b8063667cb4ba14610098578063715018a6146100c95780638da5cb5b146100d35780639776aacf146100f1575b600080fd5b6100b260048036038101906100ad91906109fe565b6101c1565b6040516100c0929190610c3a565b60405180910390f35b6100d1610205565b005b6100db61033f565b6040516100e89190610bdb565b60405180910390f35b61010b60048036038101906101069190610a27565b610368565b005b61012760048036038101906101229190610a63565b6104a3565b6040516101349190610c1f565b60405180910390f35b61015760048036038101906101529190610a8c565b6104c7565b005b610173600480360381019061016e9190610a8c565b610742565b005b61018f600480360381019061018a9190610970565b610746565b005b6101ab60048036038101906101a69190610999565b6108ef565b6040516101b89190610cc3565b60405180910390f35b60016020528060005260406000206000915090508060000154908060010160009054906101000a900473ffffffffffffffffffffffffffffffffffffffff16905082565b61020d610914565b73ffffffffffffffffffffffffffffffffffffffff1661022b61033f565b73ffffffffffffffffffffffffffffffffffffffff1614610281576040517f08c379a000000000000000000000000000000000000000000000000000000000815260040161027890610ca3565b60405180910390fd5b600073ffffffffffffffffffffffffffffffffffffffff1660008054906101000a900473ffffffffffffffffffffffffffffffffffffffff1673ffffffffffffffffffffffffffffffffffffffff167f8be0079c531659141344cd1fd0a4f28419497f9722a3daafe3b4186f6b6457e060405160405180910390a360008060006101000a81548173ffffffffffffffffffffffffffffffffffffffff021916908373ffffffffffffffffffffffffffffffffffffffff160217905550565b60008060009054906101000a900473ffffffffffffffffffffffffffffffffffffffff16905090565b610370610914565b73ffffffffffffffffffffffffffffffffffffffff1661038e61033f565b73ffffffffffffffffffffffffffffffffffffffff16146103e4576040517f08c379a00000000000000000000000000000000000000000000000000000000081526004016103db90610ca3565b60405180910390fd5b60405180604001604052808381526020018273ffffffffffffffffffffffffffffffffffffffff16815250600160008481526020019081526020016000206000820151816000015560208201518160010160006101000a81548173ffffffffffffffffffffffffffffffffffffffff021916908373ffffffffffffffffffffffffffffffffffffffff16021790555090505060028290806001815401808255809150506001900390600052602060002001600090919091909150555050565b600281815481106104b357600080fd5b906000526020600020016000915090505481565b600073ffffffffffffffffffffffffffffffffffffffff166001600083815260200190815260200160002060010160009054906101000a900473ffffffffffffffffffffffffffffffffffffffff1673ffffffffffffffffffffffffffffffffffffffff16141561053757600080fd5b81600360003373ffffffffffffffffffffffffffffffffffffffff1673ffffffffffffffffffffffffffffffffffffffff16815260200190815260200160002060008381526020019081526020016000205410156105ca576040517f08c379a00000000000000000000000000000000000000000000000000000000081526004016105c190610c83565b60405180910390fd5b81600360003373ffffffffffffffffffffffffffffffffffffffff1673ffffffffffffffffffffffffffffffffffffffff1681526020019081526020016000206000838152602001908152602001600020546106269190610cef565b600360003373ffffffffffffffffffffffffffffffffffffffff1673ffffffffffffffffffffffffffffffffffffffff1681526020019081526020016000206000838152602001908152602001600020819055506001600082815260200190815260200160002060010160009054906101000a900473ffffffffffffffffffffffffffffffffffffffff1673ffffffffffffffffffffffffffffffffffffffff1663a9059cbb33846040518363ffffffff1660e01b81526004016106eb929190610bf6565b602060405180830381600087803b15801561070557600080fd5b505af1158015610719573d6000803e3d6000fd5b505050506040513d601f19601f8201168201806040525081019061073d91906109d5565b505050565b5050565b61074e610914565b73ffffffffffffffffffffffffffffffffffffffff1661076c61033f565b73ffffffffffffffffffffffffffffffffffffffff16146107c2576040517f08c379a00000000000000000000000000000000000000000000000000000000081526004016107b990610ca3565b60405180910390fd5b600073ffffffffffffffffffffffffffffffffffffffff168173ffffffffffffffffffffffffffffffffffffffff161415610832576040517f08c379a000000000000000000000000000000000000000000000000000000000815260040161082990610c63565b60405180910390fd5b8073ffffffffffffffffffffffffffffffffffffffff1660008054906101000a900473ffffffffffffffffffffffffffffffffffffffff1673ffffffffffffffffffffffffffffffffffffffff167f8be0079c531659141344cd1fd0a4f28419497f9722a3daafe3b4186f6b6457e060405160405180910390a3806000806101000a81548173ffffffffffffffffffffffffffffffffffffffff021916908373ffffffffffffffffffffffffffffffffffffffff16021790555050565b6003602052816000526040600020602052806000526040600020600091509150505481565b600033905090565b60008135905061092b81610da4565b92915050565b60008151905061094081610dbb565b92915050565b60008135905061095581610dd2565b92915050565b60008135905061096a81610de9565b92915050565b60006020828403121561098257600080fd5b60006109908482850161091c565b91505092915050565b600080604083850312156109ac57600080fd5b60006109ba8582860161091c565b92505060206109cb85828601610946565b9150509250929050565b6000602082840312156109e757600080fd5b60006109f584828501610931565b91505092915050565b600060208284031215610a1057600080fd5b6000610a1e84828501610946565b91505092915050565b60008060408385031215610a3a57600080fd5b6000610a4885828601610946565b9250506020610a598582860161091c565b9150509250929050565b600060208284031215610a7557600080fd5b6000610a838482850161095b565b91505092915050565b60008060408385031215610a9f57600080fd5b6000610aad8582860161095b565b9250506020610abe85828601610946565b9150509250929050565b610ad181610d23565b82525050565b610ae081610d41565b82525050565b6000610af3602683610cde565b91507f4f776e61626c653a206e6577206f776e657220697320746865207a65726f206160008301527f64647265737300000000000000000000000000000000000000000000000000006020830152604082019050919050565b6000610b59601083610cde565b91507f42616c616e6365204578636565646564000000000000000000000000000000006000830152602082019050919050565b6000610b99602083610cde565b91507f4f776e61626c653a2063616c6c6572206973206e6f7420746865206f776e65726000830152602082019050919050565b610bd581610d6b565b82525050565b6000602082019050610bf06000830184610ac8565b92915050565b6000604082019050610c0b6000830185610ac8565b610c186020830184610bcc565b9392505050565b6000602082019050610c346000830184610ad7565b92915050565b6000604082019050610c4f6000830185610ad7565b610c5c6020830184610ac8565b9392505050565b60006020820190508181036000830152610c7c81610ae6565b9050919050565b60006020820190508181036000830152610c9c81610b4c565b9050919050565b60006020820190508181036000830152610cbc81610b8c565b9050919050565b6000602082019050610cd86000830184610bcc565b92915050565b600082825260208201905092915050565b6000610cfa82610d6b565b9150610d0583610d6b565b925082821015610d1857610d17610d75565b5b828203905092915050565b6000610d2e82610d4b565b9050919050565b60008115159050919050565b6000819050919050565b600073ffffffffffffffffffffffffffffffffffffffff82169050919050565b6000819050919050565b7f4e487b7100000000000000000000000000000000000000000000000000000000600052601160045260246000fd5b610dad81610d23565b8114610db857600080fd5b50565b610dc481610d35565b8114610dcf57600080fd5b50565b610ddb81610d41565b8114610de657600080fd5b50565b610df281610d6b565b8114610dfd57600080fd5b5056fea26469706673582212207dec67a3d6bcdf0439ad23c14f330232806ee6c67ff6baf4eb7912f34c3e8f9664736f6c63430008000033",
  "immutableReferences": {},
  "source": "pragma solidity  ^0.8.0;\r\nimport \"../node_modules/@openzeppelin/contracts/token/ERC20/IERC20.sol\";\r\n//import \"../node_modules/@openzeppelin/contracts/utils/math/Math.sol\";\r\nimport \"../node_modules/@openzeppelin/contracts/access/Ownable.sol\";\r\n\r\ncontract DexWallet is Ownable {\r\n//using SafeMath for uint256;\r\n\r\n // the struct is used to get the full details of the coins \r\n   struct Token {\r\n    bytes32 ticker;\r\n    address tokenAddress;\r\n     }\r\nmapping(bytes32 => Token) public tokenMapping;\r\nbytes32[] public tokenList;\r\n\r\n\r\n// the double mapping is used to track the muliple addresses that are using the exchange\r\nmapping(address => mapping(bytes32 => uint256)) public balance;\r\n\r\n\r\nfunction addToken(bytes32 ticker, address tokenAddress) onlyOwner external {\r\n    tokenMapping[ticker] = Token(ticker, tokenAddress);\r\n    tokenList.push(ticker);\r\n}\r\n\r\nfunction deposit(uint amount,bytes32 ticker) external {\r\n\r\n}\r\n\r\nfunction withdraw(uint amount, bytes32 ticker) external {\r\n    require(tokenMapping[ticker].tokenAddress != address(0));\r\n    require(balance[msg.sender][ticker] >= amount, \"Balance Exceeded\");\r\n    balance[msg.sender][ticker] = balance[msg.sender][ticker] - amount;\r\n    IERC20(tokenMapping[ticker].tokenAddress).transfer(msg.sender, amount);\r\n}\r\n\r\n\r\n\r\n\r\n\r\n\r\n\r\n\r\n\r\n\r\n\r\n\r\n\r\n     \r\n}",
  "sourcePath": "C:/Users/HP/Desktop/DEX/contracts/DexWallet.sol",
  "compiler": {
    "name": "solc",
    "version": "0.8.0+commit.c7dfd78e.Emscripten.clang"
  },
  "schemaVersion": "3.4.1",
  "updatedAt": "2021-06-23T11:05:51.474Z",
  "networkType": "ethereum",
  "devdoc": {
    "kind": "dev",
    "methods": {
      "owner()": {
        "details": "Returns the address of the current owner."
      },
      "renounceOwnership()": {
        "details": "Leaves the contract without owner. It will not be possible to call `onlyOwner` functions anymore. Can only be called by the current owner. NOTE: Renouncing ownership will leave the contract without an owner, thereby removing any functionality that is only available to the owner."
      },
      "transferOwnership(address)": {
        "details": "Transfers ownership of the contract to a new account (`newOwner`). Can only be called by the current owner."
      }
    },
    "version": 1
  },
  "userdoc": {
    "kind": "user",
    "methods": {},
    "version": 1
  }
}