{
  "contractName": "DexWallet",
  "abi": [
    {
      "anonymous": false,
      "inputs": [
        {
          "indexed": true,
          "internalType": "address",
          "name": "previousOwner",
          "type": "address"
        },
        {
          "indexed": true,
          "internalType": "address",
          "name": "newOwner",
          "type": "address"
        }
      ],
      "name": "OwnershipTransferred",
      "type": "event"
    },
    {
      "inputs": [
        {
          "internalType": "address",
          "name": "",
          "type": "address"
        },
        {
          "internalType": "bytes32",
          "name": "",
          "type": "bytes32"
        }
      ],
      "name": "balance",
      "outputs": [
        {
          "internalType": "uint256",
          "name": "",
          "type": "uint256"
        }
      ],
      "stateMutability": "view",
      "type": "function",
      "constant": true
    },
    {
      "inputs": [],
      "name": "owner",
      "outputs": [
        {
          "internalType": "address",
          "name": "",
          "type": "address"
        }
      ],
      "stateMutability": "view",
      "type": "function",
      "constant": true
    },
    {
      "inputs": [],
      "name": "renounceOwnership",
      "outputs": [],
      "stateMutability": "nonpayable",
      "type": "function"
    },
    {
      "inputs": [
        {
          "internalType": "uint256",
          "name": "",
          "type": "uint256"
        }
      ],
      "name": "tokenList",
      "outputs": [
        {
          "internalType": "bytes32",
          "name": "",
          "type": "bytes32"
        }
      ],
      "stateMutability": "view",
      "type": "function",
      "constant": true
    },
    {
      "inputs": [
        {
          "internalType": "bytes32",
          "name": "",
          "type": "bytes32"
        }
      ],
      "name": "tokenMapping",
      "outputs": [
        {
          "internalType": "bytes32",
          "name": "ticker",
          "type": "bytes32"
        },
        {
          "internalType": "address",
          "name": "tokenAddress",
          "type": "address"
        }
      ],
      "stateMutability": "view",
      "type": "function",
      "constant": true
    },
    {
      "inputs": [
        {
          "internalType": "address",
          "name": "newOwner",
          "type": "address"
        }
      ],
      "name": "transferOwnership",
      "outputs": [],
      "stateMutability": "nonpayable",
      "type": "function"
    },
    {
      "inputs": [
        {
          "internalType": "bytes32",
          "name": "ticker",
          "type": "bytes32"
        },
        {
          "internalType": "address",
          "name": "tokenAddress",
          "type": "address"
        }
      ],
      "name": "addToken",
      "outputs": [],
      "stateMutability": "nonpayable",
      "type": "function"
    },
    {
      "inputs": [
        {
          "internalType": "uint256",
          "name": "amount",
          "type": "uint256"
        },
        {
          "internalType": "bytes32",
          "name": "ticker",
          "type": "bytes32"
        }
      ],
      "name": "deposit",
      "outputs": [],
      "stateMutability": "nonpayable",
      "type": "function"
    },
    {
      "inputs": [
        {
          "internalType": "uint256",
          "name": "amount",
          "type": "uint256"
        },
        {
          "internalType": "bytes32",
          "name": "ticker",
          "type": "bytes32"
        }
      ],
      "name": "withdraw",
      "outputs": [],
      "stateMutability": "nonpayable",
      "type": "function"
    }
  ],
  "bytecode": "0x608060405234801561001057600080fd5b5060006100216100c460201b60201c565b9050806000806101000a81548173ffffffffffffffffffffffffffffffffffffffff021916908373ffffffffffffffffffffffffffffffffffffffff1602179055508073ffffffffffffffffffffffffffffffffffffffff16600073ffffffffffffffffffffffffffffffffffffffff167f8be0079c531659141344cd1fd0a4f28419497f9722a3daafe3b4186f6b6457e060405160405180910390a3506100cc565b600033905090565b6110a5806100db6000396000f3fe608060405234801561001057600080fd5b50600436106100935760003560e01c80639ead7222116100665780639ead72221461010d578063a8d2021a1461013d578063c9630cb014610159578063f2fde38b14610175578063feb8be821461019157610093565b8063667cb4ba14610098578063715018a6146100c95780638da5cb5b146100d35780639776aacf146100f1575b600080fd5b6100b260048036038101906100ad9190610ba7565b6101c1565b6040516100c0929190610dad565b60405180910390f35b6100d1610205565b005b6100db61033f565b6040516100e89190610d17565b60405180910390f35b61010b60048036038101906101069190610bd4565b610368565b005b61012760048036038101906101229190610c14565b6104a3565b6040516101349190610d92565b60405180910390f35b61015760048036038101906101529190610c41565b6104c7565b005b610173600480360381019061016e9190610c41565b610742565b005b61018f600480360381019061018a9190610b0d565b6108e3565b005b6101ab60048036038101906101a69190610b3a565b610a8c565b6040516101b89190610e36565b60405180910390f35b60016020528060005260406000206000915090508060000154908060010160009054906101000a900473ffffffffffffffffffffffffffffffffffffffff16905082565b61020d610ab1565b73ffffffffffffffffffffffffffffffffffffffff1661022b61033f565b73ffffffffffffffffffffffffffffffffffffffff1614610281576040517f08c379a000000000000000000000000000000000000000000000000000000000815260040161027890610e16565b60405180910390fd5b600073ffffffffffffffffffffffffffffffffffffffff1660008054906101000a900473ffffffffffffffffffffffffffffffffffffffff1673ffffffffffffffffffffffffffffffffffffffff167f8be0079c531659141344cd1fd0a4f28419497f9722a3daafe3b4186f6b6457e060405160405180910390a360008060006101000a81548173ffffffffffffffffffffffffffffffffffffffff021916908373ffffffffffffffffffffffffffffffffffffffff160217905550565b60008060009054906101000a900473ffffffffffffffffffffffffffffffffffffffff16905090565b610370610ab1565b73ffffffffffffffffffffffffffffffffffffffff1661038e61033f565b73ffffffffffffffffffffffffffffffffffffffff16146103e4576040517f08c379a00000000000000000000000000000000000000000000000000000000081526004016103db90610e16565b60405180910390fd5b60405180604001604052808381526020018273ffffffffffffffffffffffffffffffffffffffff16815250600160008481526020019081526020016000206000820151816000015560208201518160010160006101000a81548173ffffffffffffffffffffffffffffffffffffffff021916908373ffffffffffffffffffffffffffffffffffffffff16021790555090505060028290806001815401808255809150506001900390600052602060002001600090919091909150555050565b600281815481106104b357600080fd5b906000526020600020016000915090505481565b600073ffffffffffffffffffffffffffffffffffffffff166001600083815260200190815260200160002060010160009054906101000a900473ffffffffffffffffffffffffffffffffffffffff1673ffffffffffffffffffffffffffffffffffffffff16141561053757600080fd5b81600360003373ffffffffffffffffffffffffffffffffffffffff1673ffffffffffffffffffffffffffffffffffffffff16815260200190815260200160002060008381526020019081526020016000205410156105ca576040517f08c379a00000000000000000000000000000000000000000000000000000000081526004016105c190610df6565b60405180910390fd5b81600360003373ffffffffffffffffffffffffffffffffffffffff1673ffffffffffffffffffffffffffffffffffffffff1681526020019081526020016000206000838152602001908152602001600020546106269190610eb8565b600360003373ffffffffffffffffffffffffffffffffffffffff1673ffffffffffffffffffffffffffffffffffffffff1681526020019081526020016000206000838152602001908152602001600020819055506001600082815260200190815260200160002060010160009054906101000a900473ffffffffffffffffffffffffffffffffffffffff1673ffffffffffffffffffffffffffffffffffffffff1663a9059cbb33846040518363ffffffff1660e01b81526004016106eb929190610d69565b602060405180830381600087803b15801561070557600080fd5b505af1158015610719573d6000803e3d6000fd5b505050506040513d601f19601f8201168201806040525081019061073d9190610b7a565b505050565b600073ffffffffffffffffffffffffffffffffffffffff166001600083815260200190815260200160002060010160009054906101000a900473ffffffffffffffffffffffffffffffffffffffff1673ffffffffffffffffffffffffffffffffffffffff1614156107b257600080fd5b6001600082815260200190815260200160002060010160009054906101000a900473ffffffffffffffffffffffffffffffffffffffff1673ffffffffffffffffffffffffffffffffffffffff166323b872dd3330856040518463ffffffff1660e01b815260040161082593929190610d32565b602060405180830381600087803b15801561083f57600080fd5b505af1158015610853573d6000803e3d6000fd5b505050506040513d601f19601f820116820180604052508101906108779190610b7a565b5081600360003373ffffffffffffffffffffffffffffffffffffffff1673ffffffffffffffffffffffffffffffffffffffff168152602001908152602001600020600083815260200190815260200160002060008282546108d89190610e62565b925050819055505050565b6108eb610ab1565b73ffffffffffffffffffffffffffffffffffffffff1661090961033f565b73ffffffffffffffffffffffffffffffffffffffff161461095f576040517f08c379a000000000000000000000000000000000000000000000000000000000815260040161095690610e16565b60405180910390fd5b600073ffffffffffffffffffffffffffffffffffffffff168173ffffffffffffffffffffffffffffffffffffffff1614156109cf576040517f08c379a00000000000000000000000000000000000000000000000000000000081526004016109c690610dd6565b60405180910390fd5b8073ffffffffffffffffffffffffffffffffffffffff1660008054906101000a900473ffffffffffffffffffffffffffffffffffffffff1673ffffffffffffffffffffffffffffffffffffffff167f8be0079c531659141344cd1fd0a4f28419497f9722a3daafe3b4186f6b6457e060405160405180910390a3806000806101000a81548173ffffffffffffffffffffffffffffffffffffffff021916908373ffffffffffffffffffffffffffffffffffffffff16021790555050565b6003602052816000526040600020602052806000526040600020600091509150505481565b600033905090565b600081359050610ac881611013565b92915050565b600081519050610add8161102a565b92915050565b600081359050610af281611041565b92915050565b600081359050610b0781611058565b92915050565b600060208284031215610b2357610b22610f6d565b5b6000610b3184828501610ab9565b91505092915050565b60008060408385031215610b5157610b50610f6d565b5b6000610b5f85828601610ab9565b9250506020610b7085828601610ae3565b9150509250929050565b600060208284031215610b9057610b8f610f6d565b5b6000610b9e84828501610ace565b91505092915050565b600060208284031215610bbd57610bbc610f6d565b5b6000610bcb84828501610ae3565b91505092915050565b60008060408385031215610beb57610bea610f6d565b5b6000610bf985828601610ae3565b9250506020610c0a85828601610ab9565b9150509250929050565b600060208284031215610c2a57610c29610f6d565b5b6000610c3884828501610af8565b91505092915050565b60008060408385031215610c5857610c57610f6d565b5b6000610c6685828601610af8565b9250506020610c7785828601610ae3565b9150509250929050565b610c8a81610eec565b82525050565b610c9981610f0a565b82525050565b6000610cac602683610e51565b9150610cb782610f72565b604082019050919050565b6000610ccf601083610e51565b9150610cda82610fc1565b602082019050919050565b6000610cf2602083610e51565b9150610cfd82610fea565b602082019050919050565b610d1181610f34565b82525050565b6000602082019050610d2c6000830184610c81565b92915050565b6000606082019050610d476000830186610c81565b610d546020830185610c81565b610d616040830184610d08565b949350505050565b6000604082019050610d7e6000830185610c81565b610d8b6020830184610d08565b9392505050565b6000602082019050610da76000830184610c90565b92915050565b6000604082019050610dc26000830185610c90565b610dcf6020830184610c81565b9392505050565b60006020820190508181036000830152610def81610c9f565b9050919050565b60006020820190508181036000830152610e0f81610cc2565b9050919050565b60006020820190508181036000830152610e2f81610ce5565b9050919050565b6000602082019050610e4b6000830184610d08565b92915050565b600082825260208201905092915050565b6000610e6d82610f34565b9150610e7883610f34565b9250827fffffffffffffffffffffffffffffffffffffffffffffffffffffffffffffffff03821115610ead57610eac610f3e565b5b828201905092915050565b6000610ec382610f34565b9150610ece83610f34565b925082821015610ee157610ee0610f3e565b5b828203905092915050565b6000610ef782610f14565b9050919050565b60008115159050919050565b6000819050919050565b600073ffffffffffffffffffffffffffffffffffffffff82169050919050565b6000819050919050565b7f4e487b7100000000000000000000000000000000000000000000000000000000600052601160045260246000fd5b600080fd5b7f4f776e61626c653a206e6577206f776e657220697320746865207a65726f206160008201527f6464726573730000000000000000000000000000000000000000000000000000602082015250565b7f42616c616e636520457863656564656400000000000000000000000000000000600082015250565b7f4f776e61626c653a2063616c6c6572206973206e6f7420746865206f776e6572600082015250565b61101c81610eec565b811461102757600080fd5b50565b61103381610efe565b811461103e57600080fd5b50565b61104a81610f0a565b811461105557600080fd5b50565b61106181610f34565b811461106c57600080fd5b5056fea2646970667358221220e648dd4a6e0aa41d587b370e6e867efcab4dcd89a71d14e8a9e1a7c93da319f564736f6c63430008060033",
  "immutableReferences": {},
  "source": "pragma solidity  ^0.8.0;\r\nimport \"../node_modules/@openzeppelin/contracts/token/ERC20/IERC20.sol\";\r\n//import \"../node_modules/@openzeppelin/contracts/utils/math/Math.sol\";\r\nimport \"../node_modules/@openzeppelin/contracts/access/Ownable.sol\";\r\n \r\ncontract DexWallet is Ownable {\r\n//using SafeMath for uint256;\r\n\r\n // the struct is used to get the full details of the coins \r\n   struct Token {\r\n    bytes32 ticker;\r\n    address tokenAddress;\r\n     }\r\nmapping(bytes32 => Token) public tokenMapping;\r\nbytes32[] public tokenList;\r\n\r\n\r\n// the double mapping is used to track the muliple addresses that are using the exchange\r\nmapping(address => mapping(bytes32 => uint256)) public balance;\r\n\r\n\r\nfunction addToken(bytes32 ticker, address tokenAddress) onlyOwner external {\r\n    tokenMapping[ticker] = Token(ticker, tokenAddress);\r\n    tokenList.push(ticker);\r\n}\r\n\r\nfunction deposit(uint amount,bytes32 ticker) external {\r\nrequire(tokenMapping[ticker].tokenAddress != address(0));\r\nIERC20(tokenMapping[ticker].tokenAddress).transferFrom(msg.sender, address(this), amount);\r\nbalance[msg.sender][ticker] += amount;\r\n}\r\n\r\nfunction withdraw(uint amount, bytes32 ticker) external {\r\n    require(tokenMapping[ticker].tokenAddress != address(0));\r\n    require(balance[msg.sender][ticker] >= amount, \"Balance Exceeded\");\r\n    balance[msg.sender][ticker] = balance[msg.sender][ticker] - amount;\r\n    IERC20(tokenMapping[ticker].tokenAddress).transfer(msg.sender, amount);\r\n}\r\n    \r\n}",
  "sourcePath": "C:/Users/HP/Desktop/DEX/contracts/DexWallet.sol",
  "compiler": {
    "name": "solc",
    "version": "0.8.6+commit.11564f7e.Emscripten.clang"
  },
  "schemaVersion": "3.4.1",
  "updatedAt": "2021-07-01T13:52:55.462Z",
  "networkType": "ethereum",
  "devdoc": {
    "kind": "dev",
    "methods": {
      "owner()": {
        "details": "Returns the address of the current owner."
      },
      "renounceOwnership()": {
        "details": "Leaves the contract without owner. It will not be possible to call `onlyOwner` functions anymore. Can only be called by the current owner. NOTE: Renouncing ownership will leave the contract without an owner, thereby removing any functionality that is only available to the owner."
      },
      "transferOwnership(address)": {
        "details": "Transfers ownership of the contract to a new account (`newOwner`). Can only be called by the current owner."
      }
    },
    "version": 1
  },
  "userdoc": {
    "kind": "user",
    "methods": {},
    "version": 1
  }
}